:020000022000DC
:1070000000000420757302005D7302005F730200CC
:1070100061730200637302006573020000000000E8
:107020000000000000000000000000006773020084
:1070300069730200000000006B7302006D730200B0
:107040009D9E02006F730200C9A002006F730200D0
:107050006F7302006F7302004D9F02006F73020096
:107060006F7302006F7302006F7302006F73020090
:107070006F73020095A102006F7302006F7302002C
:107080006F7302002D7D02006F7302006F730200A8
:107090006F7302006F7302001D0C03006F73020018
:1070A0006F7302006F7302006F7302006F73020050
:1070B0006F7302006F730200000000000000000008
:1070C0006F7302006F7302006F7302006F73020030
:1070D0006F7302006F7302006F7302006F73020020
:1070E0006F7302006F730200FD3C0300000000009C
:1070F000000000006F730200000000006F730200C8
:10710000000000000000000000000000000000007F
:10711000000000000000000000000000000000006F
:10712000000000000000000000000000000000005F
:10713000000000000000000000000000000000004F
:10714000000000000000000000000000000000003F
:10715000000000000000000000000000000000002F
:10716000000000000000000000000000000000001F
:10717000000000000000000000000000000000000F
:1071800000000000000000000000000000000000FF
:1071900000000000000000000000000000000000EF
:1071A00000000000000000000000000000000000DF
:1071B00000000000000000000000000000000000CF
:1071C00000000000000000000000000000000000BF
:1071D00000000000000000000000000000000000AF
:1071E000000000000000000000000000000000009F
:1071F000000000000000000000000000000000008F
:10720000354936480A1A02D0072291438D4634493F
:1072100034480A1A06D00722914381F309880222D2
:1072200082F3148830483149314A00F044F831483B
:107230003149324A00F03FF831483249324A00F0D1
:107240003AF832483249334A00F035F83248334987
:10725000334A00F030F833483349344A00F02BF811
:1072600033483449344A00F026F83448344900227F
:1072700000F02CF833483449002200F027F8334856
:107280003349091A082902DB002202604160314AB1
:1072900090471F481F49884205D00268043003B454
:1072A000904703BCF7E700208646EC46002000210B
:1072B000294A9047FEE7884207D0521A05D0037842
:1072C00001300B700131013AF9D17047884202D088
:1072D00002700130FAE770470000042000E003204C
:1072E0000000042000000420DCD70300F42B002061
:1072F000602C0020D0730200D07302001C7A0300BF
:10730000DCD70300F42B0020F42B0020E07B0300EB
:10731000E07B0300E07B0300E07B0300E07B0300F5
:10732000E07B0300E07B0300E07B0300DCD703008D
:1073300048D80300602C0020602C0020602C002026
:10734000EC6B0020EC6B0020EC6B0020EC6B002061
:10735000EC8B00209D7302003DB40200FEE7FEE7C7
:10736000FEE7FEE7FEE7FEE7FEE7FEE7FEE7FEE7F5
:1073700000F002B8FFF7FCBF0F484FF00701884349
:1073800085460E4880470E48016841F4700101604F
:10739000BFF34F8FBFF36F8FFFF732BF09480A4922
:1073A0000A4A884207D0521A05D0037801300B7080
:1073B0000131013AF9D170470000042021B60200E2
:1073C00088ED00E0CC7B0300E02B0020F42B0020B4
:1073D000032811D8012A0AD101290FD100F10E0288
:1073E000D2B20D4B00EB40001A5400207047012927
:1073F000F7D0022904D049B1072070470022F8E7EE
:10740000054B00EB400018444270EEE7024B00EBE6
:10741000400018448270E8E7602C002008B5012283
:1074200002210020FFF7D4FF08B1072810D107225E
:1074300002210120FFF7CCFF08B1072808D1002165
:107440000A220846FFF7C4FF10B1072808BF002032
:1074500008BD00000388102B10B502D0112B1ED0E0
:1074600010BD1A4C2168B1B901220846FFF7B0FFE0
:1074700008B1072824D1072202210120FFF7A8FF25
:1074800008B107281CD1042202210020FFF7A0FF29
:1074900008B1072814D1236801332360E0E70B4AC1
:1074A0001368013B1360002BDAD1FFF7B7FF002808
:1074B000D6D0074B1B68002BD2D0BDE81040184730
:1074C000034B1B68002BE6D09847E4E7702C0020A4
:1074D0006C2C002082B001238DF807309DF8073016
:1074E000114B1860596044F2010188429A6012D031
:1074F00044F20201884206D1DA60DA6812689A61C1
:10750000DA685268DA6172B69DF80730002BFBD159
:1075100062B602B070471A611A6992685A611A69B4
:1075200012689A611A69ECE7742C002000B583B0E8
:1075300002900091019244F2010071466A4600F007
:1075400003F803B000BD0000F0B5064687B00F4653
:10755000154672B603F092F902F0E0FF0028FBD165
:10756000244B254CE41AE40844F2010324049E420F
:1075700044F001042BD00BD8012E14D041F20103AA
:107580009E4222D01D493A46204603F017F90EE0EC
:1075900044F202039E42F5D1D5E900321849204653
:1075A00003F015F903E01749204603F003F9164BE1
:1075B000D3F8F030DB0700D500BE2A463946304606
:1075C00007B0BDE8F040FFF785BF1049ECE7AA68B7
:1075D0000592104602F030FB296802970191696814
:1075E000009103460A49059A204603F014F9094917
:1075F000DAE700BFCC7A0300FC7A03007E7C03004C
:107600002A7C0300EB7B030000ED00E0087C030014
:10761000447C03006A7C030010B5D0E90243D1E941
:107620000202A04272EB03032CBF0120002010BD18
:1076300008B50A4800F063FB094AD2E90031C018D6
:10764000084BD3E9002341F10001904271EB0303A1
:1076500003D210F1807041F1000108BDF42B00202D
:10766000982C0020102D002037B505460C460A48FE
:1076700001A901F004FB60B10570446001A906484E
:1076800001F027FB18B1054800F03EFB002003B0D5
:1076900030BD0420FBE700BFFC2C0020F42B0020B1
:1076A000294B73B51E7804461EB90026304602B039
:1076B00070BD0028F9D0FFF7BBFFD4E90223904248
:1076C000994139D300230DF107008DF8073000F000
:1076D000BFF923692BB94FF0FF324FF0FF33C4E9F4
:1076E00002239DF8070000F0D7F9D4E90530984748
:1076F00000250DF107008DF8075000F0A9F9236966
:10770000C3B1D4E90212B2F1FF3F08BFB1F1FF3FAC
:1077100005D05B1842F10002C4E9023235469DF8FB
:10772000070000F0B9F9002DBFD00848214602F04B
:107730003FFABBE71D46F2E7B3F1FF3F08BFB2F1E6
:10774000FF3FB2D0F1E700BFA02C0020A47C0300D3
:1077500013B5114B1149186801900823104858229D
:1077600001F058FA044698B90E4A0F4801A900F0F2
:10777000B7F9044660B90C48012100F0A3FA0123CF
:107780000A4A0948194600F005FA094B01221A7005
:10779000204602B010BD00BFA07C0300A42C002036
:1077A000FC2C002099780200F42B0020FFFF7F00C2
:1077B000A02C002030B56AB103684FF0FF344FF0C1
:1077C000FF355A614A1E5142C3E9024551411961D0
:1077D000002030BD0720FCE7F7B5044600250DF179
:1077E000070017460E468DF8075000F031F9D4E92E
:1077F0000223B3F1FF3F08BFB2F1FF3F07D1FFF70C
:1078000017FF301841F10001C4E9020101259DF87C
:10781000070000F041F955B12369A76103B1266162
:107820002146002003B0BDE8F040FFF71DBF284609
:1078300003B0F0BD37B5054600240DF107008DF803
:10784000074000F005F9D5E90223B3F1FF3F08BF77
:10785000B2F1FF3F1FBF4FF0FF324FF0FF33C5E9DA
:10786000022301249DF8070000F016F934B12946DF
:10787000012003B0BDE83040FFF7F6BE204603B05C
:1078800030BD401A20F07F4070470000014800F0F2
:1078900036BA00BFF42B00202DE9F743064600F06E
:1078A00019FA40B1624AD2E9003113F1807341F113
:1078B0000001C2E900310021304600F01AFA38B167
:1078C0005C4C236823B12068FFF7EAFE00232360A5
:1078D0000121304600F00DFA20B1FFF7A9FE564B0A
:1078E000C3E900015548534C01A901F002FA4FF0D9
:1078F000FF384FF0FF39A0B9DFF844814D4D4046C5
:1079000002F06CF9002800F08580D0E90223B3F181
:10791000FF3F08BFB2F1FF3F32D1404602F058F9B5
:10792000EDE70378012B20D0022B08D1444D2846E7
:1079300002F04EF9002877D0C0E90289F7E75BB979
:107940004168D1E90223B3F1FF3F08BFB2F1FF3F25
:1079500002D03B4802F02CF901A9384801F0F4F9B3
:1079600001A9364801F0C5F9C5E741682368994285
:1079700002D100232360EFE7314802F032F9EBE750
:10798000296891B12968D1E9020182428B412FD245
:107990002B68D3E90223B3F1FF3F08BFB2F1FF3FE9
:1079A00003D02968404602F003F9404602F010F97E
:1079B000D0E902490746FFF73BFE201A69EB0109AF
:1079C000012879F1000318DBB0F5350F13D3FFF769
:1079D0005DFF1C4A02441C484FF49603002100F04E
:1079E000F9F890B92B6813B9304600F0CBF82F6046
:1079F00003B0BDE8F0832246EDE71348002100F014
:107A00006EF93846FFF74CFE01E00D28F9D000234F
:107A10002B6074E7074B1B68002BE9D1304603B09D
:107A2000BDE8F04300F0B2B8084B01221A7093E7AA
:107A3000982C0020182D0020102D0020FC2C002058
:107A4000A47C0300FFFFB400F42B0020A02C002036
:107A500070B5EFF3108672B60C4A946801239CB996
:107A600093600B4B0B4DD3F8801029401160C3F885
:107A70008050D3F8841051604FF0FF32C3F8842057
:107A8000047006B962B670BD0370FAE71C2D0020C1
:107A900000E100E0FC06FFBD084B9A6810B55AB142
:107AA00050B9EFF3108172B6054A1C6814605C6827
:107AB0005460986001B962B610BD00BF1C2D002053
:107AC00000E100E0435882B03BB1002343504358EB
:107AD0000193019B012002B070471846FBE70000AC
:107AE000F8B5204B4479204E43F824201F4A204B00
:107AF00006EBC4049B1A2279DB081B0432B143F065
:107B000002001C4902F056FE0820F8BD02680C88ED
:107B1000C2F8084590F904508A7804795201002D82
:107B2000D2B219DB14494F1987F8002301226D09DD
:107B300004F01F0402FA04F441F82540427906EBF0
:107B4000C201012446F832000C7143F003000B49D6
:107B500002F030FE0020D8E7094904F00F040A556E
:107B6000ECE700BF302D0020282D0020CC7A030048
:107B70000C7B0300B07C030000E100E0D27C03003A
:107B800014ED00E0036801221A60704703680122C7
:107B90005A60704773B501F15005AD000068ADB291
:107BA0004FF480348C400026C0F80843C0F84843A6
:107BB000465101F5A8714559019522F07F42019D7A
:107BC00040F82120C0F844430BB1C0F8044302B090
:107BD00070BD00002DE9F74F0D4622F07F4402688A
:107BE0004FF4803705F150068F408046B60002EB17
:107BF0008500C2F84873B6B2C2F80873D2F804150B
:107C000099464FF0000BD0F84035C0F8401542F8C7
:107C100006B05B1A9259009223F07F43012B009A21
:107C20004FEA850A0CD1264B4FF4806043F00103E4
:107C30009847D8F8003043F806B09B590193019B50
:107C4000D8F80010D1F80465C1F84473A31B23F0E1
:107C50007F43012B1CD11A4B05F5A875013443F065
:107C6000010341F825404FF480609847D8F8003070
:107C7000D3F804359E4209D1D8F800300020C3F86B
:107C80004473C3F8047303B0BDE8F08F0D20FAE726
:107C90008A44C9F1FF13CAF84045D1F80405221AF5
:107CA000013A22F07F4203F57F439342EED3002A4C
:107CB000E2D10134CAF84045D1F804359842DAE7F8
:107CC000F07C030003680222C3F8442309B1C3F81F
:107CD0000423704700684FF48271FFF7F3BE4FF43E
:107CE000803303FA01F10368C3F84813C3F808139B
:107CF000704750318900006889B2FFF7E3BE03681E
:107D0000D3F804057047000090F90430002B09DB1C
:107D10005A09012103F01F0301FA03F3403202491B
:107D200041F82230704700BF00E100E0024B034AF7
:107D30001B681068184700BF302D0020282D002038
:107D400070B5064D0646002455F8043B0BB130468D
:107D500098470134042CF7D170BD00BF402D00209E
:107D60004388033300EB830399420BD382884FF699
:107D7000FF739A4208D0038833B18068431C58428D
:107D8000584170470220704701207047033080B28D
:107D900040F2FE33984230B51FD8134B1A783AB9E7
:107DA0001C895D892C440444A4B2B4F5806F0AD9BF
:107DB0001A7DAAB99A8BDC8B2244024492B2B2F5A6
:107DC000806F0DD801220A801446142202FB04336E
:107DD0005A8910445881002030BD48F20860FBE702
:107DE00048F20660F8E700BF742D00200B4A0C49EA
:107DF0005388142000FB0311CB6833B90420496871
:107E000010700122074801F063BB07490523137076
:107E100002238B80012209680023F3E7582D0020FC
:107E2000742D0020E02B00203C2E002007B50023FD
:107E300005490093054A09680548082301F0AEFA90
:107E400003B05DF804FB00BF3C2E0020047D03005E
:107E5000E02B002007B5002301460093034A0448A5
:107E6000082301F09BFA03B05DF804FBFC7C0300DF
:107E7000E02B002013B500230C4600930146084A6E
:107E80000848042301F08AFA38B9074B142101FB92
:107E9000043101230B7402B010BD48F20D60FAE703
:107EA000F87C0300E02B0020742D002037B50A4831
:107EB0000A4B42689C881968538803250333057070
:107EC0009BB2002000909B0001EB8401044801F06C
:107ED00065FA03B030BD00BF582D00203C2E0020B5
:107EE000E02B002010B50146044800F0C8FE1C221B
:107EF0000446002109F084F9204610BD282E0020F8
:107F000068B10268084B9A4209D14068074B984211
:107F100007D00133984214BF03200120704703208B
:107F200070470020704700BFDEC0ADDEFE011EF1CD
:107F30002DE9F0410D460223154F2B80164600F522
:107F4000805100F108044FF001088C420ED22368E2
:107F500001330BD02046FFF703FF48B10EB186F87E
:107F60000080022809D14FF480632B80BDE8F081A6
:107F7000A3683A68934200D93B602B886288033338
:107F800013442B806388033304EB8304DDE700BFD5
:107F90006C2D002038B5144B14220D4602FB003026
:107FA0002B68446804F58051A3B15C88033403EB6B
:107FB00084048C4215D22368013312D02046FFF787
:107FC000CFFE012808D002280BD00028F1D12C6068
:107FD000012038BD0834ECE76388033304EB8304E5
:107FE000E7E70020F5E700BF742D0020426873B575
:107FF00004460D466AB3234BD9688A4229D31B69CC
:108000009A4226D812F0030323D11F490089098917
:1080100088421ED12068916888421AD11B48416865
:108020008A4203D901F580518A420DD381698A427F
:108030000CD901F580518A4208D201222A80B3FA74
:1080400083F0400902B070BD1A46F7E748F20963B1
:10805000F5E700262E800196288801A9FFF79AFFF0
:1080600030B92B8801339BB2012B2B80F3D9E9E780
:10807000019B226899689142EED16360024B1B8993
:108080002381DFE7E02B0020582D0020742D0020F5
:108090002DE9F8431C461D4B1B7806460F46154636
:1080A00073B382B37CB3DFF86C804FF01409A388FC
:1080B000012B02D948F2096020E009FB03F318F80C
:1080C00003302BB9A0882146FFF764FF20B9206058
:1080D000A3880133A380EAE723681EB19988328818
:1080E0009142EFD11FB119883A889142EAD19A683A
:1080F000C5E90023064B1B892B810020BDE8F883CE
:1081000048F20160FAE748F20460F7E7502D0020DA
:10811000582D0020742D002008B5074B5888191DD4
:10812000FFF738FF18B1BDE80840FFF7BFBEBDE854
:108130000840FFF75BBE00BF582D00202DE9F04737
:108140009F4FDFF8A08288B006463B6823B99D4860
:10815000414600F0CEFD38603D6829784B1E052B66
:1081600007D8DFE813F02000740074000601060150
:108170005E0148F20E641422002103A809F040F8C1
:1081800041F61D539C4208BF00243B6804941A78B2
:10819000023A042A00F2FC81DFE812F0DD01E90175
:1081A0000B0213021A022EB1874B00225A604FF4C1
:1081B0000644E0E72B79032B1CD8DFE803F0140218
:1081C0002A35824A1378022B1AD0137D022B4FF0E6
:1081D000010317D114214B43D1180020D054486813
:1081E000FFF738FE03E001232B71FFF71FFE002885
:1081F00000F0B980744B00225A6048F20D64BAE76F
:108200000023E7E7704A13700023536041F61D54C2
:10821000B1E76F496F48002302222B718A800968F9
:10822000012201F055F9E2E76B4B684C5B88684A24
:1082300014214B43E11800262E714D68106815601B
:10824000958848600D810221E6549180C8E7B5F811
:1082500014A0AA7DDFF87491AEB1022AEB8806D98A
:10826000142101FB0A91DA1C088902440A811422B4
:1082700002FB0A99C3F57F43B9F80A20FD33134482
:10828000A9F80A3093E7142303FB0A9318895C6862
:1082900004EB8004062A69D8DFE802F0274E364452
:1082A0001D5A040041F61D54AA7DEB88022A06D906
:1082B000142101FB0A91DA1C088902440A81142264
:1082C00002FB0A99C3F57F43B9F80A20FD33134432
:1082D000A9F80A304FE74148414900234360AB69A0
:1082E0000360FFF783FE00285BD00223AB750023F9
:1082F00000930423EA182146364801F04FF800287D
:1083000031D048F20D64CFE72B69002B14BF032353
:108310000123AB750023009305F10C02042304F143
:108320000801E9E70123AB750022EB8800922A6976
:108330009B0004F10C01DFE703290CBF0523062392
:10834000AB7500230093042305F10802E118D3E77D
:108350000623AB75224B1988204B5868FFF78AFD1E
:1083600004460028A0D108B0BDE8F08748F20E64AA
:108370009AE7002E7FF41BAF2B79012B34D0022B10
:108380003FF444AF002B7FF4F4AE02232B710DF1C8
:108390000A01EB68039303A8CDE90466FFF726FE04
:1083A00010B948F20964E6E60498BDF80A1083881B
:1083B000EB8003882B81FFF75DFD044627E000BFBB
:1083C000702D0020282E0020502D0020742D00201C
:1083D0003C2E0020E02B0020582D0020342D0020C2
:1083E000482E0020682D00207B4B03AA3146A81D93
:1083F000FFF74EFE784B044668B999880498FFF75A
:1084000039FD044648F209639C423FF4FFAE002C5C
:108410007FF4B1AEA7E708223146184608F0F0FE17
:10842000F0E7002E7FF4C3AE6C4B1A7BB2B11E7323
:108430001A78013A062A3FF69CAE01A151F822F0C3
:10844000EB840200118502002F85020035850200B1
:10845000738102003B8502004D8502001A78072ACD
:10846000E6D801A151F822F089840200318402008B
:1084700031840200AF840200C3840200E78402005A
:10848000E7840200AB8402001A89554901321A813F
:1084900000225A801A730A78B2FA82F252099A724A
:1084A0000A7DB2FA82F25209DA72012207E04D49DE
:1084B00058688A884088033202448A8002221A70EF
:1084C000B6E75C88464A4749142505FB042208683C
:1084D000546850608888108102200C6088800021D8
:1084E00011740622EBE70722E9E79A7A32B9DA7AC1
:1084F0008AB900221A705A805A6087E638490022E9
:108500009A72CA68002AF2D1097C0029EFD05A80F9
:10851000FFF702FE51E70022DA72314A116A0029A0
:10852000E7D192F82420002AE3D00122EFE7FFF7F9
:10853000BDFC42E7FFF75AFC3FE75A88284B14215D
:1085400001FB02335868FFF785FC36E700225A60CA
:10855000FFF76CFC31E701228DF80C201A89ADF889
:1085600018209A88DB68ADF81A20059310E00222E3
:108570008DF80C201A89ADF818209A88ADF81A20C9
:10858000DA689B7D05929A1F534253418DF81C3047
:1085900003A8FFF7D5FB0026414613483E6000F0D4
:1085A000D3FB1248012100F089FC00287FF4CDADF7
:1085B000D9E603228DF80C20DA88ADF818201A8944
:1085C000D0E704228DF80C20DB88ADF81830DFE707
:1085D00005238DF80C30DBE74C2E0020582D0020B1
:1085E000742D00203C2E0020282E0020382E002044
:1085F0004068FFF7A3BD000008B50548012100F061
:1086000045FC18B9BDE80840FFF798BD08BD00BF9C
:10861000382E00202DE9F3419846374B1B7806464B
:108620000D46002B5CD000295DD009884FF6FF7302
:1086300099425BD06B88002B58D06B689B0758D150
:108640004AB92F890DF102013846FFF79FFB30B17F
:1086500002B0BDE8F08113885788ADF8023001A858
:10866000FFF740FC044660B9BDF80220234B1421FB
:1086700001FB023358890338C01B588148F2076058
:10868000E6E780F8008000238375BDF8023083821E
:108690006B68036101211A4800F004FC2B882381D8
:1086A000B8F1030F6B88A38004BF0423A3754FF0B8
:1086B000000508BF3368E06008BFA3611148E78088
:1086C000658101A900F005FB36B1E36833600E4B0C
:1086D00075601B89B5723381FFF78EFF0020B7E705
:1086E00048F20160B4E748F20460B1E748F2036081
:1086F000AEE748F20260ABE7502D0020742D002059
:108700006C2D0020282E0020582D002008B503468F
:1087100007480268042A08D00168064A42F8213056
:10872000012100F0BFFB002008BD48F20B60FBE711
:10873000442E0020402D00202DE9F04FDFF820824C
:1087400089B01422002103A808F05AFD98F80030DF
:1087500003F0FF0200923BB103A8FFF7F1FA0027F4
:10876000384609B0BDE8F08F08F1040000F0B2FB14
:108770000028F4D1009BDFF8ECA1D3F8F83F5C1C93
:1087800008BF4FF010234FF0805208BF5B6911699A
:108790005269581C08BF02FB01F3CAF8103069493E
:1087A000A3F5405300225046CAF80C3000F0C4FD37
:1087B00007460028D4D11C2363496448DFF8A8B1D8
:1087C0008C2200F027FA0323B9463D4601933C462C
:1087D000DAF80C604E443046FFF792FB012867D070
:1087E000032817D000283DD159494FF0140C0CFB39
:1087F00004FC01EB0C0201F80C0056600CF11002B5
:108800000CF1080C0A4430466144FFF791FB45F037
:1088100002054AE03268531C02D04E4B9A4239D1CD
:10882000321D06F580511068013033D10432914277
:10883000F9D1DBF800203AB902220123CBF800601D
:10884000ABF8042000930BE014226243404B02205B
:1088500099189854404A4E60548001340881A4B25B
:1088600045F0010509F58059B9F5405FB0D1019B8C
:10887000012B98BF0025EDB2022D03D0062D36D076
:10888000002D3ED1002388F8003048F20A67C8F86E
:10889000043065E7019B2E495A1E93B214226243AD
:1088A000881801934660032088540134A4B2D9E7A4
:1088B000009B6BB1264B14226243991802209854F6
:1088C000DBF800204A60244A088154800134A4B2B5
:1088D00000222249CBF800603046FFF729FBBBF8A5
:1088E0000420022A0CBF042208221543BAE7012300
:1088F00088F8003003A80023C8F80430FFF720FAF6
:108900002EE702A8FFF7EEFAC8B10123013D03707C
:108910000A2D09D8DFE805F0060806080708070849
:108920000F110F000023037102A9084800F0D1F9CC
:10893000FFF762FE14E70323F5E70223F3E748F2AB
:1089400007670DE7007F03009C2D0020282E0020E4
:10895000742D0020DEC0ADDE582D0020402E0020FA
:10896000502D0020E02B00203C2E002073B50D463A
:108970000446C8B1C1B10DF10601FFF737FBB0B134
:10898000BDF806300B486668142202FB0300012183
:108990000C3000F087FA63682E600C336B600123A3
:1089A000A372002002B070BD48F20460FAE748F2FA
:1089B0000960F7E7742D002013B50446A8B10DF146
:1089C0000601FFF713FB98B1BDF806200B4B1421ED
:1089D00001FB0233DA6872B1A27A62B1DA68002070
:1089E000013ADA60A07202B010BD48F20460FAE702
:1089F00048F20960F7E748F20560F4E7742D0020BB
:108A000002230022FFF706BE18B103230022FFF75E
:108A100001BE48F204607047114B1B7813B5044641
:108A2000ABB14FF6FF73984214D001A8FFF75AFA82
:108A300098B10523037001230371C48001A909487B
:108A400000F047F9FFF7D8FD002002B010BD48F252
:108A50000160FAE748F20360F7E748F20760F4E7DD
:108A6000502D0020282E00200F4B1B7807B5A3B1F6
:108A700001A8FFF737FA98B10623037001A90B4844
:108A800000F027F90A4B1A780AB101221A73FFF78E
:108A9000B3FD002003B05DF804FB48F20160F9E784
:108AA00048F20760F6E700BF502D0020282E002076
:108AB000582D002007B5ADF80600ADF804100DF1F3
:108AC000060001A9FFF7E4FA03B05DF804FB07B55F
:108AD0001346ADF806000A4600200DF10601FFF727
:108AE000D7FA03B05DF804FB07B51346ADF80600EE
:108AF0000A460DF106000021FFF7CAFA03B05DF83F
:108B000004FB20B119B103680B600020704748F2E4
:108B1000046070472DE9F84F3C4B1B780446002B4E
:108B20006DD000286ED0DFF8E8901222002108F006
:108B300067FB032323804FF0000A4F4614264FF0B3
:108B40000108D9F80410B9F80AB0B9F80850084675
:108B5000FFF7D6F9032808BF2388628804BF03F112
:108B6000FF33238006FB0A735D44DB681344638094
:108B700023899B446389A4F808B0ADB22B44638178
:108B8000C5F58065A389ADB2AB4238BFA58101F1BF
:108B9000080501F58051A94229D92B68013326D057
:108BA0002846FFF7DDF801280AD0022815D0002852
:108BB000F1D1A3880133A3800AE04FF0010AC0E796
:108BC000E3880133E380E3896A8803331344E38154
:108BD0006B88033305EB8305DDE7E38884F81080B9
:108BE0004D1BE189013301EBA501E380E18109F12E
:108BF0001409BAF1000FE0D00020BDE8F88F48F268
:108C00000160FAE748F20460F7E700BF502D00204A
:108C1000742D002010B561B1B2FBF3F403FB1424F2
:108C2000A4B244B9C0E9001484608281C3812046A3
:108C300010BD0E20FCE70920FAE782B050E8022FB1
:108C4000C188B2EB324F4FF0000317BF92B241EA36
:108C5000014142EA014104E04268B2EB324F08BFF1
:108C6000012340E80212002AE8D18DF807309DF870
:108C70000730002B0CBF1120002002B0704737B521
:108C800050E8013F9DB2C48925448489A54228BF8C
:108C90002D1B0489A54202BFBFF32F8F002207E0DE
:108CA000C5EA030540E80154002CE9D14FF0010268
:108CB0008DF803200193019A0A609DF8031001F0DA
:108CC000FF0321B1006810FA82F003B030BD1846EE
:108CD000FBE70A884B889A4209D150E8012FC2EA83
:108CE000024240E80123002BF7D101207047002009
:108CF000704737B550E8023F1FFAA3F5C488A54274
:108D000002BFBFF32F8F00220DE0C4892544848960
:108D1000A54228BF2D1BC3EA054540E80254002C9C
:108D2000E8D14FF001028DF803200193019A0A6007
:108D30009DF8031001F0FF0321B1006800EB124021
:108D400003B030BD1846FBE70A884B889A4209D128
:108D500050E8022FC2EA224240E80223002BF7D15A
:108D6000012070470020704701F01F024B090121CC
:108D7000914000EB830000F065B84B0910B501F09D
:108D80001F040121A14000EB830000F04FF8E040F8
:108D900000F0010010BD01F01F0301229A404B09B1
:108DA00000EB8300D14300F065B84B0901F01F01CF
:108DB00050F82300C84000F0010070472DE9F0474B
:108DC0004F1E7F0980460E460137002558F8254082
:108DD00008EB8509E44394FAA4F4B4FA84F44FEA66
:108DE000451A202C06D10135AF42EFD83446204633
:108DF000BDE8F0875444A642F5D921464046FFF726
:108E0000BCFF0028F3D0D9F80040E44394FAA4F45E
:108E1000B4FA84F4E5E710B5034653E8000F0A46B8
:108E200043E8002494F0000FF7D110BD10B50346BD
:108E300053E8000F40EA010243E8002494F0000FD9
:108E4000F6D110BD10B5034653E8002F42EA0100E9
:108E500043E8000494F0000FF6D110BD10B50346AE
:108E600053E8000F00EA010243E8002494F0000FE9
:108E7000F6D110BD10B5034653E8002F02EA0100F9
:108E800043E8000494F0000FF6D110BD10B503467E
:108E900053E8000F00EB010243E8002494F0000FB8
:108EA000F6D110BD10B5034653E8002F02EB0100C8
:108EB00043E8000494F0000FF6D110BD10B503464E
:108EC00053E8002FA2EB010043E8000494F0000FE8
:108ED000F6D110BD0121FFF7A9BF0121FFF7B2BFF5
:108EE0000021FFF7BBBF10B590B1D0E901230168A5
:108EF0009B1ADBB20A60013BDBB2FF2B026802D196
:108F00000020107110BD11684C1C14600B70F2E74A
:108F10000E20F7E737B5054600240DF107008DF860
:108F20000740FEF795FD2A686B68116899420ED9D3
:108F3000481E106011F8013CEC68298A01FB0344CB
:108F4000AB6811791B1ADBB2994238BF13719DF8D7
:108F50000700FEF7A1FD204603B030BD37B505463A
:108F600000230DF107000C468DF80730FEF770FD69
:108F70002A681368591C1160E968641A298AB4FBCD
:108F8000F1F41C709DF80700FEF786FD03B030BDBC
:108F9000826810B504462AB14369016800699847A0
:108FA0000023A36010BD0EB403B5039921B104AB37
:108FB00001AA019300F076F802B05DF804EB03B06B
:108FC00070470A2938B504460D4602D10D21FFF736
:108FD000F8FFA3682268591CA160D554D4E9013276
:108FE0009A4204D32046BDE83840FFF7D1BF38BDD0
:108FF0002DE9F84F9846DDE90A43154682460F46AB
:109000000A464FF00109AA420FD2C14538BFC146F6
:1090100013F0010B01D16CB900240126B8F1010F46
:109020001BD908F1FF386E43F8E709F10109B2FBDB
:10903000F5F2E8E79B070ED5B8F1000F0CBF30261C
:109040002026A145E9D2013C31465046FFF7B9FF41
:10905000002CF6D1E0E72026F3E7B7FBF6F39D42BC
:10906000E1D9DFF83C80B7FBF6F3504618F803105F
:1090700006FB1377FFF7A5FF3346AB42B6FBF5F6C9
:10908000F1D2BBF1000F02D00CB1A14501D3BDE874
:10909000F88F20215046013CFFF793FFF4E700BF13
:1090A000157D03002DE9F74F054617468846002930
:1090B00000F03E8118F8011B49B92B7B002B00F012
:1090C0003781284603B0BDE8F04FFFF761BF25297F
:1090D00040F0B780002698F800302D2B424608F16A
:1090E000010823D0302B24D02B2B25D000242A2B71
:1090F00002F1010123D13B681A1D1B683A601C4430
:109100000A4613782E2B26D101324FF0000A104662
:1091100010F8011BA1F1300CBCF1090F1DD80A2376
:1091200003FB0A13A3F1300A0246F0E746F00106FA
:10913000D1E746F00206CEE746F00406CBE711F889
:10914000013CA3F130000928DBD80A2202FB0434D9
:10915000303C0A46CBE74FF0000A12F8011B01F041
:10916000FB0068289046F8D0782909D86F290CD8D8
:10917000632962D022D8252963D0582900F088803D
:1091800098F80030002B95D197E770390829F7D867
:1091900001A353F821F000BF0B930200819102005C
:1091A00081910200A1920200819102007F9202004F
:1091B000819102008191020091920200642901D004
:1091C0006929DDD13A68D2F80090111D89EAE97267
:1091D0003960A2EBE9724FF0010B092A35DCD34567
:1091E00038BFD3462CB1B9F1000F01DB720700D5AF
:1091F000013CB30702D5BAF1000F03D0F00701D448
:109200004CBB0024B9F1000F2DDAC9F100092D2162
:109210002846FFF7D6FE06F00302022A04D1BAF16F
:10922000000F01D11CBB0024CDE9004653460A22A1
:1092300049462846FFF7DCFEA2E73B681A1D19786D
:109240003A602846FFF7BDFE9AE70A230BF1010BAF
:10925000B2FBF3F2C1E7A345D4D220212846013C5A
:10926000FFF7AFFECCE77107D5D52B21D0E7A3459B
:10927000DAD230212846013CFFF7A3FED2E7396855
:10928000CDE900460A1D3A6053460A220968D0E734
:1092900039680A1D3A60CDE9004653461022F5E7C9
:1092A0003B681A1D3A6016F00106D3F8009024D1ED
:1092B000B9F1000F03D0484607F0F7FF0646B44265
:1092C0001DD809F1FF3919F8011F00293FF458AFE3
:1092D0002846FFF776FEF6E728460136FFF771FECF
:1092E00019F806100029F7D1A642BFF449AF202192
:1092F0002846013CFFF765FEF6E70026F0E720214F
:109300002846013CFFF75DFED9E73B681A1D3A602D
:10931000302128461C68FFF754FE78212846FFF7C5
:1093200050FE00220823CDE900322146102280E7BA
:1093300003B0BDE8F08F00BF13B50B46114680B9EE
:10934000104B1148114AC01A0E23C0080093104B4D
:109350000004104940F0010001F043FA0E2002B071
:1093600010BD4BB9074B08480B4AC01AC0080E2362
:1093700000930004064BECE703601B6802B0BDE8F5
:1093800010401847CC7A0300347B0300257D03008E
:10939000E17E03002A7D0300597D03002DE9F74398
:1093A000DDF8288088B93E4B3E483F4AC01AC008C5
:1093B0000E243E4B009400043D4940F0010001F0B2
:1093C00010FA204603B0BDE8F0834AB9344B354863
:1093D000384AC01AC0080E24344B00940004EBE74E
:1093E000D0F800E0BEF1000F09D12D4B2D48324AD4
:1093F000C01AC00808242D4B00940004DCE74BB9C8
:10940000274B28482D4AC01AC0080924274B00942E
:109410000004D1E74568D5F80490B3FBF9F509FBE2
:1094200015354DB11E4B1F48254AC01AC0080924E6
:109430001E4B00940004BFE78D0709D0184B194854
:10944000204AC01AC0081024184B00940004B3E747
:1094500012F0030F09D0124B12481B4AC01AC00861
:109460001024124B00940004A6E7C568A9420DD34E
:109470004D1EEC180569AC4208D8CDF82880DEF8FE
:109480000C40A44603B0BDE8F0436047044B0548D8
:109490000E4AC01AC0081024044B009400048BE745
:1094A000CC7A0300347B0300257D0300CE7E0300CD
:1094B0002A7D0300A77D0300537D0300667D030022
:1094C000AD7D0300D77D0300EF7D0300127E030016
:1094D000F7B580B92A4B2B482B4AC01AC0080E2476
:1094E0002A4B009400042A4940F0010001F079F968
:1094F000204603B0F0BDD0F800C0BCF1000F09D188
:109500001F4B2048234AC01AC00808241F4B009450
:109510000004E8E74AB91A4B1A481F4AC01AC008A3
:1095200009241A4B00940004DDE74568D5F800E0F3
:109530000EF1FF350D4209D0114B1248174AC01ADF
:10954000C0081024114B00940004CCE7C568A94260
:109550000CD34D1E0EFB02540569AC4206D8DCF854
:109560001040A44603B0BDE8F0406047044B0548F6
:109570000B4AC01AC0081024044B00940004B2E740
:10958000CC7A0300347B0300257D0300BB7E0300FF
:109590002A7D0300537D0300667D0300397E0300AE
:1095A0005F7E030029DF704728DF704770B50368CE
:1095B0009E6886B004460D466EB1142200216846AE
:1095C00007F01EFEA3680593237901952BB1012BAB
:1095D0000DD06846B04706B070BD01238DF800304D
:1095E00023690293E368039363690493F1E7022319
:1095F0008DF80030E3681B030293F5E708467047D7
:1096000000207047024B187A003818BF01207047BD
:10961000F02E0020034B187A0122B0FA80F05A7421
:1096200040097047F02E002008B510461A4607F092
:10963000BEFD002008BD000008B51422002104482A
:1096400007F0DEFD0348FFF7F8FA002008BD00BF71
:10965000F02E0020E02E002010B5094C094B43608D
:109660002046FFF737FC40B907F0BEFA06492074E0
:109670001C2306488C22FFF7CDFA002010BD00BF46
:10968000F02E0020F47E0300542E0020E02E002057
:1096900038B5234D234C2B7A3BB923492348FFF798
:1096A00028FB206008B9686038BD022324682B724B
:1096B000237973B1012B24D020460321FFF776FFD5
:1096C00000232B726B6018491848BDE83840FFF73B
:1096D0003BBBD4E90523D21AB2F5805FD4E903106D
:1096E00028BF4FF480529208012A38BF0122194442
:1096F0001844FFF757FF50B11128DDD101232B7219
:10970000D2E7D4E903031844FFF74EFFF3E72B7CBD
:10971000002BC9D1BDE83840022000F009B800BFD5
:10972000F02E0020082F0020042F0020E02E002023
:1097300038B5234C237A002B41D0022B09D10328C2
:1097400030D0204B00221B68E2601A793AB1012A1E
:1097500022D0637C7BBBBDE83840FFF799BFD3E9DB
:1097600005128D1AB5F5805F94BF521902F580522B
:109770009A619142EDD102284FF0000308BF1946CB
:109780002372104B18BF0D211868FFF70FFF0E4909
:109790000E48FFF7D9FADCE71A6901321A615B69F2
:1097A0009A42E7E7E3680133082B01D8E360D0E78A
:1097B0000023E360DFE7BDE8384007F005BA38BDB5
:1097C000F02E0020082F0020042F0020E02E002083
:1097D000831E012B01D8FFF7ABBF704700F0FD03DC
:1097E000012B08D1044B00225A74421E50425041B2
:1097F0001874FFF74DBF7047F02E002010B5064CCF
:10980000201DFFF767FB28B9637C1BB9BDE810403A
:10981000FFF73EBF10BD00BFF02E00202DE9F34141
:1098200080460D460F4801A916461F46FFF727FA46
:109830000446A8B11C22002107F0E2FC2D0B0123F5
:10984000237101A90748C4F80080A760E56066613C
:10985000FFF73FFAFFF7D2FF002002B0BDE8F0812A
:109860000420FAE7E02E00202DE9F74381468846E0
:10987000104801A917461E46FFF701FA0446B0B189
:109880001C22002107F0BCFC00250A9BA36001A953
:10989000C4E9037807482571C4F800906661FFF7B2
:1098A00018FAFFF7ABFF284603B0BDE8F0830420A9
:1098B000FAE700BFE02E00202DE9F84FB0F806A02F
:1098C0004579D2F800B09DF828900AFB05F5043DD3
:1098D00088460BEB0301A94203F1040488BFA5EB02
:1098E000030BB4FBFAF607460AFB1644C2F800B0B5
:1098F0004EB9AAEB04055D4528BF5D46BBF1000FDC
:1099000004D1BDE8F88F3F68013EF1E7043408EB6D
:1099100006003C442A46B9F1000F0DD02146ABEBBE
:10992000050B07F044FCDA452E443F6855464FF0DE
:10993000000428BF5D46E1E701462046EFE7FFF758
:10994000D2BAF8B546790146721E05460023934205
:109950002D6803D30024A64202D8F8BD0133F6E7F0
:109960000F682846FFF7FAFA01343946F3E72DE984
:10997000F843068ACD1C0746FFF7CCFA043E35446F
:109980000446B5FBF6F5F0B14FF48073EDB2838079
:10999000C680013D076081464FF00008A84512D2FD
:1099A0003846FFF7B7FA064648B163790133637169
:1099B00008F10108C9F8000007608146EEE720467B
:1099C000FFF7BFFF34462046BDE8F883012104308D
:1099D000FFF768BA10B5012104460430FFF76EFAAC
:1099E000C0B220B92046BDE81040FFF7AABF10BDA5
:1099F0001FB503920022009203AAFFF75DFF05B096
:109A00005DF804FB1FB503920122009203AAFFF741
:109A100053FF05B05DF804FB41DF7047064B10B5FE
:109A200000241C70054B1C60BFF35F8F0449054880
:109A300000F0A8F8204610BD142F0020182F002099
:109A40002C7F03000C2F002007B500230DF1070029
:109A50008DF80730FDF7FCFFF1EE103A23F09F037D
:109A6000E1EE103ABFF35F8F0A4B4022C3F8842126
:109A70009DF80700FEF710F807F0B6F820B103B024
:109A80005DF804EBFFF7C8BF20BF40BF20BF03B0A5
:109A90005DF804FB00E100E002681368526893423D
:109AA00091BFD01A80680130801888BFC01A7047F3
:109AB000036881681A685B688B4234BF01330023F6
:109AC000D31A58425841704773B5002304460DF12C
:109AD00007000D468DF80730FDF7BAFF2046FFF767
:109AE000E7FF10B1237C002B3BD12368A1685E689F
:109AF0005A688A4234BF013200225A6028B11A687B
:109B00008A4234BF013200221A60E2686368511E43
:109B1000072920D8DFE801F004101F141F1F1F18A9
:109B20002A789A552046FFF7B7FF23689A68824241
:109B300000D29860002415E02A8823F81620F1E767
:109B40002A6843F82620EDE7D5E9000103EBC603B8
:109B5000C3E90001E6E7294602FB063007F027FBD0
:109B6000E0E704249DF80700FDF796FF204602B0C9
:109B700070BD836800225A60C3E904229A60DA60EB
:109B80001A6070470B684A684360934208BF00231D
:109B9000016008BF43607047436843B10268916841
:109BA00052680B449342436004BF002343607047F4
:109BB00070B5446806460D46206818B1B36829465A
:109BC000984718B923682B60256070BD2468F3E7B7
:109BD0004368186808B102681A60704743681868DB
:109BE00070474368186800B97047884203D102681B
:109BF0001A600120704703460068F4E710B50D496C
:109C0000A1F59472914201D800200FE08C1AE30F65
:109C100003EBE4035B1002EBC30452F833308342DE
:109C200005D802D204F10802ECE7606810BD2146B5
:109C3000E8E700BF3884030008B5FFF7DFFF024BF9
:109C4000002808BF184608BDFB82030038B5074C42
:109C5000051E04F1080318BF1C4623682BB11A68BF
:109C600022605B6828469847F7E738BD242F00201C
:109C700020B9054B01225A70FFF7E8BF012802D135
:109C8000014A9070F8E770471C2F002020B9034B61
:109C900001225A70FFF7DABF704700BF1C2F002067
:109CA00038B50E4C2378B3B90D486360A3602361C7
:109CB000E36000F0C3F8054606F096FF08B900F02F
:109CC000C9F801232370074BD3F800340BB10123EB
:109CD000A370284638BD8525F5E700BF1C2F00205E
:109CE000719C02000000014037B50D4C00230DF1BE
:109CF00007008DF80730FDF7ABFEE368013BE3603A
:109D0000E36833B9074BD3F8005415B900F0B4F841
:109D1000A5709DF80700FDF7BFFE03B030BD00BF82
:109D20001C2F002000000140012813B50CD003288F
:109D300020D038B9134B0122C3F88020BFF34F8FD6
:109D4000BFF36F8F02B010BD0F4C00230DF1070061
:109D50008DF80730FDF77CFE23780BB9FFF7A0FFE5
:109D6000E3689DF807000133E3600123A370FDF76A
:109D700093FEE7E700F06EF802B0BDE81040FFF791
:109D8000B3BF00BF00E100E01C2F00201FB500237F
:109D90008DF807000DF10F008DF80F30FDF758FE1C
:109DA00006F022FF50B909480DF10701FFF78CFEBC
:109DB0000648FFF77DFE08B100F0CCF99DF80F00D2
:109DC000FDF76AFE05B05DF804FB00BF6C7A030086
:109DD00007B520B103280DD003B05DF804FB104B8C
:109DE0001B78012BF8D100F0B5F903B05DF804EB56
:109DF00000F0B8B900230DF107008DF80730FDF72A
:109E000027FE07480378012B05D10649013000F0F1
:109E100061F900F08DF99DF80700FDF73DFEDBE7E5
:109E2000802F00208D9D020000F18040002382B031
:109E3000036003680193019B02B07047044A1379E1
:109E400023B9012110609180184670478520704722
:109E5000842F0020074B1A68D20704D4C02283F84D
:109E6000002301221A604FF080430122C3F8182515
:109E7000704700BF00E100E04FF0804208B50223C8
:109E8000C2F808334FF48270FFF7CEFF0123D3608E
:109E9000D2F81834DB03FBD408BD00004FF080413A
:109EA00010B5D1F8003163B14FF48070FFF7BCFFFB
:109EB0000D4B58790122C1F8082310B95A711B685B
:109EC00098474FF08042D2F8043163B14FF482706A
:109ED000FFF7AAFF0223C2F80833034BBDE8104086
:109EE0001B680120184710BD842F002000F180401E
:109EF00000F5C040002382B0036003680193019B1A
:109F000002B0704703681F2B83BF03F01F03036079
:109F100001484FF0A04070470003005007B5019082
:109F200001A8FFF7EFFF019B00EB8300D0F800379B
:109F300023F44033C0F80037D0F8003743EA01413A
:109F4000C0F8001703B05DF804FB00002DE9FF47DF
:109F50000024CDE90244584D4FF48072012102F1F2
:109F6000804303F5C04390B21B68012B06D1D5F89E
:109F700004330B4202D0FFF7B9FF0C430432B2F5B1
:109F8000907F4FEA4101EAD14B4BD3F87C31012B52
:109F900011D14FF4BE70FFF7A9FF4FF0A04344F07A
:109FA0000044D3F820250292C3F82025D3F82028B6
:109FB0000392C3F82028E3B2D3B1404F0025012615
:109FC000344210D0AB0003F1804303F5C043D3F813
:109FD0001005D3F8101557F8253023B1C1F301410E
:109FE000C0F3052098470135082D4FEA4606E7D112
:109FF000002C59DA314D324C324E4FF00008012717
:10A0000016F9013B5A1C3CD0C3F3C20104A8014419
:10A010005FFA83F911F8081C03F03F0203F007030D
:10A0200007FA03F319422CD001A80192FFF76AFF47
:10A03000019B03F5E07350F82330C3F3014ABAF1F2
:10A04000020F0CBF032102211046FFF767FF01A892
:10A050000192FFF757FF019B07FA03F3C0F8203581
:10A06000AB1893F9303055F8233053B14FEA9911BA
:10A07000032904D0BAF1020F19D1012901D11046E8
:10A08000984708F10108B8F1040FB9D14FF0A04387
:10A09000D3F820250292C3F82025D4F82035039365
:10A0A000C4F820351343A7D104B0BDE8F087BAF156
:10A0B000030FE6D10229E1E7006000408C2F002069
:10A0C00000030050EC2F0020014B1B68184700BF15
:10A0D000F82F002010B5124C2378FBB9114B1960F2
:10A0E000037813F0010F104B1EBFD3F8042542F084
:10A0F0000102C3F80425D3F8002222F00102C3F8BC
:10A1000000224378094A5B01DBB282F80D334FF439
:10A110000053136001232370002010BD8520FCE74D
:10A12000043000200030002000D0004000E100E0BA
:10A13000074B0022C3F8002182B0D3F8002101921E
:10A14000019A0122C3F804231A6002B0704700BFCD
:10A1500000D00040024B0122C3F808235A60704728
:10A1600000D00040084B0122C3F808235A60074B77
:10A170004FF40052C3F88020BFF34F8FBFF36F8FAF
:10A18000034B00221A70704700D0004000E100E04D
:10A1900004300020074B0022C3F8002182B0D3F81E
:10A1A00000210192019AD3F80805034B1B68C0B245
:10A1B00002B0184700D00040003000207047000077
:10A1C00007B5044B0093044A402300F032F803B073
:10A1D0005DF804FBDDA10200063000202DE9F84304
:10A1E00088461446B2B10F4B0F4E0325002743F0AB
:10A1F0000109224608EB0701002001F0BBF90744E2
:10A20000241A48B933782BB14FF47A40C847013D3E
:10A2100002D13570BDE8F88301233370002CE8D1FA
:10A22000F8E700BF7084030005300020704701F09C
:10A23000D1B9F0B595B01D46164608460C46FFF755
:10A24000C5FB1A9B0D93CDE9086500252B46082216
:10A2500005A920460A958DF82C500C95FFF7D2FBE6
:10A26000079B0293069B03939DF814308DF81150C1
:10A2700003F00302012A1DD1BDF81420059DC3F38C
:10A28000C203C2F383168DF81030B20008230EA962
:10A290002046FFF7B7FBC5F3952508AB0093324680
:10A2A00002AB0EA9284600F05DFB2046FFF792FBAB
:10A2B00015B0F0BD022AF8D1BDF81650C3F3C203A1
:10A2C000C5F389158DF810300827082D2E4628BFB4
:10A2D00008263B4632460EA92046FFF793FBAD1BEE
:10A2E00008AB02AA31460EA8374400F09FFB002DB0
:10A2F000EBD1DAE708B5FFF79AFF0448042100F034
:10A300009BFA034B01225A7108BD00BFBC7B0300BE
:10A31000FC2B0020037813F0040216D003F0030393
:10A32000012B03D0022B09D0012070470A68008856
:10A330000232C0F3831002440A60F5E70B684288DA
:10A34000023303EB92130B60EEE7104670470000F8
:10A350002DE9F04FDFF81CA187B00F46002304461B
:10A36000861C0DF1070015468DF80730FDF770FBD0
:10A37000DAF804203A60DAF8083003F580739B1AA3
:10A380000AF21C470AF583690AF21448B3421AD349
:10A390000020002D69D004F00F039B0143F005035A
:10A3A00063F30F00DAF80430DAB2033233444AF8C8
:10A3B00022009DF80700CAF80430FDF76DFB01206C
:10A3C00007B0BDE8F08F01213846FEF76BFD484627
:10A3D000FEF783FD4046FEF780FDDAF808000290A4
:10A3E000C0B203300AEB800002A9FFF793FF029B83
:10A3F00030BBDAB20AEB8202D16803919A1C0133B6
:10A40000DBB20AEB83030292D3F80CB001F0030332
:10A41000012B22D0022B15D083464046FEF760FD6B
:10A4200010B1029BCAF8083059463846FEF73AFD8B
:10A43000DAF80830DAF8042003F580739B1AA5E7F0
:10A44000D8B2CEE7BDF80E30C3F3891303334FEA19
:10A450001B4B02EB93030293DFE7BDF80C30C3F311
:10A4600083134FEA1B4B1344F5E7A40544F00600A1
:10A4700098E700BF18310020064B074810B50022AE
:10A480001A70FFF75CFA044610B90448FFF771FB35
:10A49000204610BD18310020B07A0300AC840300C0
:10A4A00030B50A4C71B10A4A0A49121BD20800237E
:10A4B0009A4201D1002030BD31F82350854202D0AC
:10A4C0000133F5E7034654F83300F4E7CC7A030090
:10A4D000BC7B0300F42B0020094B013903EBC000C7
:10A4E000032909D8DFE801F00A02040604207047B6
:10A4F000007970474079704700207047022070470C
:10A50000CC7A030070470000034BD3E90130C31A33
:10A5100058425841704700BF183100202DE9F041E2
:10A5200086B0FFF7F1FF0546002840F0ED80774C3C
:10A53000C4F81804BFF34F8FA3680293DBB2033350
:10A5400004EB830002A9FFF7E5FE029B18B1D4F8E3
:10A550001824002A5AD0DAB2991C013304EB820283
:10A56000DBB204EB8303D268DB68049302F00303DD
:10A57000022B0392029154D1BDF80E306448C3F30C
:10A580008917502F3E4628BF502606F1080166F372
:10A590008F13C1F30901ADF80E30FFF7E8F9054656
:10A5A000002800F09C80FFF711FA0023082203A97D
:10A5B0002846FFF71DFA0299CB43DBB20133C9B23B
:10A5C0000331B6EB830F4FEA830204EB810125D9F7
:10A5D0005FFA82F80823A6EB08062846FFF708FA78
:10A5E000F6B208F108034B4903F0FC033246284653
:10A5F000FFF7FEF9029B033703EB97070297D4F8A6
:10A600001834002B43D1D4F8106453E062689A42A6
:10A6100094D8A260284606B0BDE8F08108233246EF
:10A62000E5E7012B5BD1BDF80C303948C3F383114A
:10A63000062928BF062161F38913023101F00F01B9
:10A640008900ADF80C30FFF792F90546002846D096
:10A65000FFF7BCF90023082203A92846FFF7C8F931
:10A660000026BDF80C20C2F38312B300964203F11A
:10A670000803C4D202994A1CC9B20331029204EB06
:10A68000810104222846FFF7B3F90136E9E728469D
:10A69000FFF7A0F9FFF738FF80F00100C5B2B9E776
:10A6A000F3685B7923B1336829461B6830469847C5
:10A6B000F3681E68002EF3D12846FFF78BF90DF1E1
:10A6C00007008DF80760FDF7C3F9D4F818340BB90B
:10A6D000029BA3609DF80700FDF7DEF9DAE7D4F8E6
:10A6E000104454B90C4B0D480D49C01AC008000461
:10A6F00040F0020000F05EF8CCE7236820469B683B
:10A700009847E3681C68ECE7002583E718310020D0
:10A71000B07A030024310020CC7A0300FC7A0300D5
:10A72000948403002DE9F34704460E46924601A99E
:10A73000012218469946FFF70BFE1C4F10B3019DEE
:10A740004FF00008AA1CC84508EB020125D11848A3
:10A750000021FEF760FB80F31000000440EA144083
:10A76000E4006B1C04F03804DBB2EDB244F00104E9
:10A7700007EB8303033544EA881444EA8624D8604F
:10A7800047F825403B781BB1FFF7C8FE0028FBD1F6
:10A79000FFF7B8FE02B0BDE8F087C9B207EB810150
:10A7A0005AF82830CB6008F10108CCE718310020B6
:10A7B0003435002000231A46FFF7B4BF07B5012344
:10A7C000019201AAFFF7AEFF03B05DF804FB07B5E5
:10A7D000CDE9002302236A46FFF7A4FF03B05DF82A
:10A7E00004FB1FB5CDE90123069B039301AA0323B4
:10A7F000FFF798FF05B05DF804FB1FB5CDE9002316
:10A80000069B0293079B03936A460423FFF78AFF84
:10A8100005B05DF804FB7FB5CDE90123089B0393E8
:10A82000099B04930A9B059301AA0523FFF77AFF6E
:10A8300007B05DF804FB000030B50F4CD4F81024CD
:10A8400003460020114631B9D96808714AB9C4F8E5
:10A8500010340A6030BDC9680D79854206D0096898
:10A86000F1E7D26814680C601360F3E701300A283E
:10A87000E8D14FF0FF30EDE71831002038B5084B34
:10A880000125D3F810441D7004B938BDE3685D712B
:10A89000236820465B689847E3681C68F4E700BFBC
:10A8A0001831002030B5C38885B004460D4633B159
:10A8B000144A00921449154A2846FEF774FB217A7F
:10A8C00005291DD0637A4BB1A088FFF705FE104B18
:10A8D000104953F820202846FEF765FB227A0E4BDC
:10A8E000A08853F8222003920021FFF7D9FD039A94
:10A8F0000A490346284605B0BDE83040FEF753BB81
:10A9000005B030BDD8840300C0840300B8840300C0
:10A9100048850300AF9D03006C850300DD840300C0
:10A9200007B503460846197A052911D05B7A2BB181
:10A93000094A0A490190FEF736FB0198084901903F
:10A94000FEF731FB019803B05DF804EBFEF720BB86
:10A95000002AF8D0F2E700BFD8840300AF9D0300BF
:10A96000D58403002DE9F04385B01F460C9D0023DC
:10A9700095F80C902B7306460C46904629463846AF
:10A98000FFF790FFB8F1060F09D8DFE808F00412CE
:10A99000181F2833400031462846FEF704FB0022EA
:10A9A00029463846FFF7BCFF85F80C9005B0BDE896
:10A9B000F083226831462846FEF7F5FAEFE7D4E93E
:10A9C000002331462846FEF7EEFAE8E7A368009335
:10A9D0003146D4E900232846FEF7E5FADFE7E368CD
:10A9E0000193A36800933146D4E900232846FEF77B
:10A9F000DAFAD4E723690293E3680193A36800932A
:10AA00003146D4E900232846FEF7CDFAC7E763694B
:10AA1000039323690293E3680193A368009331468B
:10AA2000D4E900232846FEF7BEFAB8E708292DE945
:10AA3000F74F80460E4617461C463CD8002593F833
:10AA40000C901D7319461046FFF72CFFDFF888A005
:10AA5000DFF888B0AE4231D918F8052059462046B3
:10AA6000FEF7A1FA0135082DF4D11949194DDFF887
:10AA700070A02046FEF797FA4FF0000B5E4522D9F2
:10AA800018F80B207E2A05D81046019206F036FBF6
:10AA9000019A00B92E2251462046FEF784FA0BF1A6
:10AAA000010BBBF1080FE9D1012221463846FFF71F
:10AAB00037FF84F80C9003B0BDE8F08F5146204674
:10AAC000FEF771FACEE729462046FEF76CFAE6E774
:10AAD000F1840300EF840300ED840300E7840300A6
:10AAE000F384030028B139B10023C1E900301846CE
:10AAF000704748F21050704748F21350704730B119
:10AB0000036848F240508B4208BF0020704748F26B
:10AB10001050704730B119B10B68934205D30A60E9
:10AB20000020704748F21350704748F214507047A5
:10AB30002DE9F0410C4600AF8046114620461546EF
:10AB40001E46FFF7CFFF00BB31462046FFF7CAFF86
:10AB5000D8B92279104B53F82230CBB1B8F1000F9D
:10AB60000AD10E4931F8124034B107346A46E4087C
:10AB7000A2EBC4029546E84632462946404698472D
:10AB800018B9074B2B60063B3360BD46BDE8F0812A
:10AB900048F20350F9E700BF9C850300808503005D
:10ABA0007652464D70B505460C461E46FFF79AFF95
:10ABB00070B9AB796AB1B3420ED12979094B53F818
:10ABC000213063B111462046984708B9064B2360EF
:10ABD00070BD48F21050FBE748F21150F8E748F218
:10ABE0000350F5E7D08503007052464D2DE9F04142
:10ABF0000D460D4904461646FFF781FF90B9676878
:10AC00003146BA792846FFF785FF58B93A79074B9C
:10AC100053F8223023B129462046BDE8F0411847B9
:10AC200048F20350BDE8F0817052464D048603009F
:10AC3000F0B530B14079B3B1C9B18AB948F2135314
:10AC400013E01846F7E7441E00254E5D0F5D57558B
:10AC500016550135013CA542F7D91B1A014402449F
:10AC60008342F0D20BB148F211531846F0BD48F2BE
:10AC70001053FAE72DE9F8430D4600AF04461D498D
:10AC8000284616469846FFF73AFF48BB1A49304611
:10AC9000FFF735FF20BBD5F804907368994522D1A2
:10ACA00099F80520396A4046FFF734FFC0B999F892
:10ACB0000430124A52F82390B9F1000F16D054B95B
:10ACC0000F4A32F8133033B107336A46DB08A2EB80
:10ACD000C3039D466C464346324629462046C84734
:10ACE000BD46BDE8F88348F24150F9E748F2035009
:10ACF000F6E700BF7652464D7052464D3886030047
:10AD000068860300F8B50A4F0A4C0B4EE41B01237A
:10AD1000E40833700025A54203D1022333700020DC
:10AD2000F8BD57F8353098470028F9D10135F2E7DA
:10AD3000C47A0300CC7A0300D0350020054B1A7882
:10AD4000022A04D01878431E584258417047012007
:10AD5000704700BFD035002070B506460D466A46E4
:10AD6000194B9A4205D3FFF7E9FF78B94FF4054034
:10AD700070BD164B16481749C01AC008000440F0B1
:10AD80000100FFF717FD48F21950F1E7124C236854
:10AD900023B1124B1A68124B9A420FD086B97DB973
:10ADA00010481149206000F067FF0028E0D10B4BEC
:10ADB0000B4A1A6023680D4A1A60D9E70020D7E7CA
:10ADC00048F21750D4E700BF00E00320CC7A03001C
:10ADD000FC7A030080860300A04E0020BC360020D1
:10ADE0006572E54BD4350020C03600206169614DA5
:10ADF00010B56C46154B9C420FD3DAB9144B1C6846
:10AE0000144B9C421BD1E8B913481346BDE81040CF
:10AE10000A460068114900F06DBF114B11481249F4
:10AE2000C01AC008000440F00100FFF7C3FC48F25C
:10AE3000195010BD0029E1D148F21050F9E748F24D
:10AE40000250F6E748F21750F3E700BF00E0032096
:10AE5000BC3600206572E54BA04E0020C0360020B5
:10AE6000CC7A0300FC7A03008086030073B5134696
:10AE70000D460446F8B111B3144A1168144A9142C0
:10AE800020D1144E01932A460146306800F014FF89
:10AE900048F27152904210D1002211461046FFF73D
:10AEA000A7FF50B9019B30682A46214602B0BDE891
:10AEB000704000F001BF48F2135002B070BD48F27C
:10AEC0001450FAE748F20250F7E700BFBC36002002
:10AED0006572E54BA04E00200122FFF7C7BF00229C
:10AEE000FFF7C4BF08B54FF480410020FFF7C4FA54
:10AEF00018B1044A0821FCF719FBBDE80840FFF728
:10AF0000F9B900BF9986030008B5FCF721FC28B108
:10AF1000BDE80840024A0B21FCF708BB08BD00BF92
:10AF2000EE86030076DF70477ADF70477CDF70477C
:10AF30008FDF7047014AB421FCF7F8BA4887030055
:10AF4000014AE521FCF7F2BA4887030010B50388EF
:10AF5000212B86B004460FD80F2B11D9103B112B93
:10AF60000ED8DFE803F00F350D880D0D0D959EA569
:10AF70000D0D0D0D0D0D0D453B2B54D0562B66D0F0
:10AF800006B010BD564B57485749C01AC0080004B8
:10AF900040F00300FFF70EFC544BA1885448198081
:10AFA00003F080FA20B1534A4FF49471FCF7BEFAD3
:10AFB000A088002104F028F91128E1D00028DFD072
:10AFC0004C4A4FF4967106B0BDE81040FCF7AEBA9B
:10AFD000434B4448227A4849C01AC008000440F054
:10AFE0000300FFF7EBFB414B4FF6FF721A80C7E7F8
:10AFF0003B4B3C484149C01AC008000440F00400E3
:10B00000FFF7D8FB0023A0888DF8143005A98DF830
:10B010001530FFF78DFF0028B2D0364A40F23F11BD
:10B02000FCF784FAACE72E4B2E483549C01AC0080D
:10B03000000440F00400FFF7BDFBA0881321FFF7D8
:10B0400071FF00289CD02B4A40F24711BBE7244BEC
:10B0500024482C49C01AC008000440F00400FFF73F
:10B06000A9FBA0881321FFF75DFF002888D0214AA3
:10B0700040F24F11A7E71B48194B2349C01AC008DB
:10B08000000440F0040006B0BDE81040FFF792BB9A
:10B090001448134B1D49C01AC008000440F00300B7
:10B0A000F1E710480E4B1A49C01AC0080004F5E732
:10B0B000437A0B4A0B481749801A627B0292227B23
:10B0C0000192A27AC008C2F3C00200040092C3F346
:10B0D0008003227A40F00300FFF79DFB50E700BF9A
:10B0E000CC7A0300FC7A0300A9870300082C002017
:10B0F000EC52002048870300B4870300CD8703008B
:10B10000E1870300F68703000B8803002A88030009
:10B11000478803006688030008B503785BB9064BCF
:10B120003B211888FFF7FEFE28B1BDE80840034A1E
:10B13000DA21FCF7FBB908BD082C00204887030082
:10B14000032809D10548064B0649C01AC008000467
:10B1500040F00300FFF72EBB704700BFFC7A0300EE
:10B16000CC7A0300BC8803000A8840F677239A4211
:10B170000BD1064B06484A88C01AC00800048B88C9
:10B18000044940F00300FFF722BB7047CC7A03006C
:10B19000FC7A0300CE88030008B5FEF73FFC28B117
:10B1A000BDE80840024A2921FCF7C0B908BD00BF2C
:10B1B0004887030008B50648032101F050FA28B17A
:10B1C000BDE80840034A5D21FCF7B0B908BD00BFE7
:10B1D000A44E00204887030010B5044604F0B2FCDA
:10B1E000204604F0D9FC204604F058FA23780D2BB1
:10B1F00003D1BDE81040FFF7DDBF10BD08B502F078
:10B20000F3FF20B1064A40F2B911FCF78FF9FFF7BE
:10B2100085F918B9BDE80840FEF716BC08BD00BFA7
:10B220004887030000B5ADB005F060FC20B1744A5A
:10B230004FF4E671FCF77AF9002301A9012001938C
:10B2400005F03EFD20B16E4A4FF4E971FCF76EF94E
:10B2500001A805F007FE20B1694A4FF4EB71FCF735
:10B2600065F9112367488DF8003006F01EF865492E
:10B2700082B26846FFF75AFE18B1614A8621FCF790
:10B2800055F90822002101A805F0BAFF4FF4A07378
:10B29000ADF804304FF40273ADF806300023ADF87A
:10B2A000083001A84FF4C873ADF80A30FFF73CFE30
:10B2B00018B1534A9021FCF739F95349534802F029
:10B2C0005DFD18B14E4AA721FCF730F9504B5148AB
:10B2D000019301A903F0D4F818B1494AC521FCF73C
:10B2E00025F9AC22002101A805F08AFF02238DF880
:10B2F000043040F20163484AADF806300123ADF84E
:10B30000143006928DF880304FF4967244F25063F8
:10B31000CDE923234148424B2A9301A901F028F9A2
:10B3200020B1374A4FF4D471FCF700F93B480121B2
:10B3300001F01BF91C22002101A805F061FF002388
:10B340004FF4A032CDE90132ADF812304FF4F022C3
:10B350008DF81430334B039206930322324B8DF851
:10B36000102001A8079301F0C3FB18B1244AFC2167
:10B37000FCF7DCF803F09EFE20B1214A4FF4BC71CB
:10B38000FCF7D4F80522002101A805F039FF352388
:10B390008DF8043007238DF8053010238DF8063022
:10B3A0009DF8073023F0030343F003038DF80730C3
:10B3B0009DF8083023F0030343F0030301A88DF840
:10B3C000083003F017FF20B10D4A40F28B11FCF753
:10B3D000ADF8164803F0F6FE20B1094A4FF4C771E4
:10B3E000FCF7A4F8124B13481349C01AC008000414
:10B3F00040F003002DB05DF804EBFFF7DBB900BFB0
:10B4000048870300FD88030069B10200D85200207C
:10B4100035AF0200EC520020042C0020A44E002086
:10B4200041B1020019B1020041AF0200D9B10200DE
:10B43000CC7A0300FC7A03000F89030008B5FFF7FC
:10B4400051FDFFF761FDFFF7A7FEFFF7EBFE074B8E
:10B4500007480849C01AC008000440F00300FFF77D
:10B46000A9F9FFF7A7FEFFF7C9FEFCE7CC7A0300B6
:10B47000FC7A0300268903000369C26893429CBFDB
:10B4800080681B18013B981A70472DE9F843D0E9F2
:10B4900002940546A9EB04084068904520440F46F5
:10B4A000144404D905F083FEEC60BDE8F8834246FD
:10B4B000A4EB090405F07BFE6868224607EB08014F
:10B4C000F0E72DE9F843C5680646894617464FF070
:10B4D00000083469B3687068A54228BFE418013CCD
:10B4E000621B5C1BBC4228BF3C46944228BF1446EA
:10B4F00049462844224605F05AFEB3682544AB422B
:10B5000008BF00253F1BA044A144F560E1D140469F
:10B51000BDE8F88310B5114C114AA2610223C4E9B9
:10B520000433104BE361A2644FF400730E4A0F49D9
:10B530002362E26400231022E01DA3626362E362DF
:10B54000A3656365E365226505F08DFE0849204625
:10B5500005F089FE2023A37110BD00BFF852002022
:10B560003E89030080530020705300204789030068
:10B570004B89030070B5164B182400FB04451D448D
:10B5800004FB00331646DC6A012C0ED0022C18D0C6
:10B59000E4B92846FFF770FF864204D832462846B1
:10B5A000FFF773FF3446204670BD2846FFF764FF5F
:10B5B0008642344628BF044622462846FFF765FFE8
:10B5C000F1E72846BDE87040FFF77BBF0024EAE7BB
:10B5D000F8520020FFF79EBF4FF08053D3F83001A0
:10B5E000A0F1080358425841704700004FF08053C3
:10B5F000D3F83021082A06D1D3F83431052B02D8EC
:10B60000024AD05C70470020704700BF5889030091
:10B61000024AD2F80034002BFBD0704700E0014012
:10B6200010B5FFF7D9FF40B14FF080430022C3F8B7
:10B630000C21C3F81021C3F83825FFF7CDFF0028EF
:10B6400046D04FF08052654BD2F80414C3F8201551
:10B65000D2F80814C3F82415D2F80C14C3F828152E
:10B66000D2F81014C3F82C15D2F81414C3F83015FE
:10B67000D2F81814C3F83415D2F81C14C3F84015C6
:10B68000D2F82014C3F84415D2F82414C3F848158E
:10B69000D2F82814C3F84C15D2F82C14C3F850155E
:10B6A000D2F83014C3F85415D2F83414C3F8601526
:10B6B000D2F83814C3F86415D2F83C14C3F86815EE
:10B6C000D2F84014C3F86C15D2F84424C3F870259E
:10B6D000FFF78CFF18B1424B424AC3F88C26FFF7A4
:10B6E00085FF18B1404BFB22C3F81825FFF77EFFFA
:10B6F00070B14FF080414FF08053D1F8E42ED3F871
:10B70000583222F00F0203F00F031343C1F8E43E56
:10B71000FFF76CFF20B1354B4FF40072C3F84026A1
:10B72000FFF75AFF48B14FF08043D3F80024D20707
:10B7300044BF6FF00102C3F800242D4AD2F88830CC
:10B7400043F47003C2F88830BFF34F8FBFF36F8F9D
:10B750004FF08053D3F83021082A0ED1D3F834317A
:10B76000052B02D8234AD35C3BB14FF01023D3F80A
:10B7700008224FF08043C3F858254FF01023D3F828
:10B780000022002A03DBD3F80432002B22DA1A4904
:10B7900001234FF01020C1F804351224FFF738FFC1
:10B7A000C0F80042FFF734FFC0F80442FFF730FF53
:10B7B0000023C1F80435FFF72BFFBFF34F8F0C496F
:10B7C0000E4BCA6802F4E0621343CB60BFF34F8FA5
:10B7D00000BFFDE70A4B0B4A1A6010BD00C00040D5
:10B7E000005000404881030000F0004000900240FB
:10B7F00000ED00E05289030000E001400400FA057A
:10B800000C2C00200090D003BFF35F8F014B00226F
:10B810001A6070478055002008B501210448FDF7E3
:10B82000FAFABFF35F8FB0FA80F0400908BD00BF9D
:10B8300080550020094B98420DD00AD868B10849BC
:10B8400048F2165248F24253884214BF1046184636
:10B8500070470449F4E748F202507047080CF000C2
:10B860008408F0002023F0002DE9F041037AA4B011
:10B870000546884673BB4668B06808F055F805F180
:10B880000C070423B2798DF80830044639460DF1CF
:10B89000090005F08CFCFFF7BFFFE8B1B279012386
:10B8A0001A4402A92046CDE9007807F043FCFFF7CF
:10B8B000ABFFFFF7BFFF044628B901232B722046D8
:10B8C00024B0BDE8F081B2790DF10901384605F0E8
:10B8D0006EFCF4E70024F2E748F20454EFE70000BE
:10B8E00070B54B6886B0054698680E46144608F059
:10B8F0001BF80590FFF790FFA8B10023CDE9015395
:10B9000004F10C03059A0093094906F1080328463F
:10B9100007F05AFDFFF778FF0123237206B0BDE858
:10B920007040FFF787BF48F2045006B070BD00BFFB
:10B9300055BD020010B5436804469A790C3005F0F5
:10B9400036FC0020207210BDF0B5047A4768A5B01F
:10B9500005460E4644B900F10C01BA79304605F0AF
:10B9600026FC204625B0F0BDFFF756FF00B3BB799B
:10B97000013302AA0193042101AB05F10C0007F089
:10B980009DFCFFF741FFBA79019B511C9942044687
:10B9900011D19DF80830042B0DD10DF1090130466D
:10B9A00005F005FC204625B0BDE8F040FFF742BF9A
:10B9B00048F20450D6E748F21650D3E770B520237A
:10B9C00086B0CDE9043304460E461546FFF724FF42
:10B9D00090B10B4B0294CDE9004306F1080205AB90
:10B9E00004A905F1080007F0E3FEFFF70DFF06B01C
:10B9F000BDE87040FFF71EBF48F2045006B070BDAE
:10BA000055BD020008B52022083005F0D0FB00200B
:10BA100008BD08B50B46202200F10801184605F0C4
:10BA2000C6FB002008BD000070B5402386B0164656
:10BA30002022CDE9042304460D46FFF7EDFE90B128
:10BA40000B4B0294CDE9004306F1080204AB05A9B3
:10BA500005F1080007F010FFFFF7D6FE06B0BDE8BD
:10BA60007040FFF7E7BE48F2045006B070BD00BF5B
:10BA700055BD020008B52022083005F098FB0020D3
:10BA800008BD08B50B46202200F10801184605F054
:10BA90008EFB002008BD00002DE9F04FD1F8049086
:10BAA00095B080460F460146104616461D46FFF7E4
:10BAB000DBFE002836D199F80540DFF874A0A30713
:10BAC0001CBF033424F003044FF0010150460BBFA8
:10BAD00002940294AB460DF10C0BFDF79CF9044661
:10BAE000BFF35F8F08BBCDF8008002AB5A4607F169
:10BAF000080106F10C0007F0E5FC0646BFF35F8F76
:10BB0000AB45CAF800400AD099F80520D11CC943BA
:10BB100001F0030103AB1944284605F048FB304609
:10BB2000FFF788FE15B0BDE8F08F48F20450F9E742
:10BB3000805500202DE9F043DFF850901F464B68F8
:10BB400087B05B79059380460E464846012114462E
:10BB5000FDF761F90546BFF35F8FA0B920230834D4
:10BB6000CDF808800193009406F1080205A9384633
:10BB700007F01AFDBFF35F8FC9F80050FFF75AFEB8
:10BB800007B0BDE8F08348F20450F9E78055002083
:10BB9000002110B50846FFF7DFF8044608B907F0A2
:10BBA0006DFF204610BD000008B5074B00221A604B
:10BBB000BFF35F8F07F02EFF014618B9BDE80840BC
:10BBC000FFF7CAB8032008BD80550020002844D0E4
:10BBD000A0F57000A0F54060352839D8352837D851
:10BBE000DFE800F0211E362427272A333036363688
:10BBF000361E361E3939393636363636363636360C
:10BC000036363636242A24271B2D362D3636363640
:10BC100036363636212A27361E1E48F21750704710
:10BC200048F20350704748F21350704748F21050E2
:10BC3000704748F21150704748F21450704748F26C
:10BC40000150704748F20250704748F271507047F7
:10BC500048F21650704748F27050704708B50121FD
:10BC60000448FDF7D8F8BFF35F8FB0FA80F04009C1
:10BC700008BD00BF8055002013B502680C4B019130
:10BC80009A4204460FD0FFF7E9FF70B10199201DD9
:10BC900006F01EF9FFF79AFFBFF35F8F054B0022F6
:10BCA0001A6002B010BD0020FBE748F20450F8E72C
:10BCB0006169614D80550020F8B50E461746051D97
:10BCC0001C466BB93246B9B2284605F015FFFFF79E
:10BCD0007DFF5CB1BFF35F8F054B00221A6005E06A
:10BCE000FFF7BCFF0028EDD148F20450F8BD00BFBB
:10BCF0008055002073B50C2B04460E4601921D465C
:10BD00001DD8AB071ED1FFF7A9FFF0B1019904348C
:10BD100065B93146204606F03FF9FFF757FFBFF3FC
:10BD20005F8F0B4B00221A6002B070BDAAB2204692
:10BD300006F0A0F9FFF74AFF0028EAD0EFE748F243
:10BD40001150F1E748F21650EEE748F20450EBE7E5
:10BD50008055002008B51046FFF7C1F838B1044AF5
:10BD6000044B48F2025188420CBF1046184608BDE9
:10BD7000080CF0000F0CF0001B4B70B501460825B5
:10BD80004FF0FF3000269A7C72B15A7CBAB1DA6863
:10BD90008A4205D9521ADA60904228BF104603E061
:10BDA0001A7C5E742AB99A74013D03F11403EAD136
:10BDB00070BDB0F5203F28BF4FF42030F4E71C7C65
:10BDC0000CB99C74F0E79A680A44B2F5203F9A6077
:10BDD00024BFA2F520329A609A6824BF04F1FF3490
:10BDE0001C74C2F52032D7E78455002010B5FFF748
:10BDF000C3FF0446FBF74AFD0C4B1860631C14D0CC
:10BE00000B4822462146FBF7E7FC70B1FDF714FF13
:10BE1000084B0949024609481B1ADB081B04BDE808
:10BE2000104043F00200FEF7C9BC10BD24560020AC
:10BE3000102C00205C7B03006C890300CC7A03008B
:10BE4000024A03480021FBF7B5BC00BFEDBD02006C
:10BE50002C8A03002DE9F3476946054601F0E6FD0B
:10BE600080B1FDF7E9FE544C544902465448241A67
:10BE7000E40824042B4644F00200FEF7A8FC02B0BC
:10BE8000BDE8F0874F48FBF7D5FC064668B1FDF7E3
:10BE9000D3FE494B4C49024649481B1ADB081B0498
:10BEA00043F00200FEF78AFCE9E7484CFBF7EEFCA2
:10BEB0002168FBF7E6FCFFF75FFF0546FBF7E6FCB2
:10BEC0002060434C4FF0010A4FF008082746B14666
:10BED000A37C002B5FD00622611C0DF1010005F050
:10BEE00012F918BB237CC4F808904FF47A629A4088
:10BEF000B2F57A4FBCBF0133DBB24FF47A6C0CFA67
:10BF000003FC4FF4004E4FF47A70494623744FF40B
:10BF1000FA620023CCFB0E0105F030F801238542C4
:10BF2000E06028BF054663744FF0000A0136082E12
:10BF300004F11404CCD1BAF1000F38D0B8F1080FD5
:10BF40002BD0142404FB087407226946204605F010
:10BF50002EF94FF480330022C4E902234FF480739A
:10BF6000B5F5803F23824FF0010328BF4FF48035A1
:10BF7000A37414482A462946FBF72EFC00283FF4F8
:10BF80007EAFFDF759FE0C4B124902460C481B1AB6
:10BF9000DB081B0484E7B046C8E70748084B0E4996
:10BFA000C01AC008000440F00200FEF703FC6B1C3E
:10BFB0003FF465AFDDE700BF5C7B03008A890300C7
:10BFC000CC7A0300102C0020D889030024560020CE
:10BFD000845500206C890300F589030037B5694654
:10BFE000054601F023FD044680B1FDF725FE124C05
:10BFF000124902461248241AE408240444F00200BC
:10C000002B46FEF7E4FB012003B030BD0D4DAB7CA9
:10C0100033B90134082C05F11405F8D10020F3E7F9
:10C020000622691C0DF1010005F06DF80028F0D121
:10C03000687C0028EDD0E7E75C7B03008A89030079
:10C04000CC7A0300845500206DDF704779DF70479C
:10C050007DDF704764DF70472DE9F04F85B0002524
:10C060000E9CBDF83CB0B4F800A001910746904684
:10C070001E46A9463A884A450DDC45B12388013B56
:10C08000A3EB0A039BB2FF2B3AD806F80A30002034
:10C0900005B0BDE8F08F7A6852F8290003900022BD
:10C0A0000DF10B0103A8FFF7D5FF0028F0D19DF893
:10C0B0000B20424521D12288002D14BF00200220F0
:10C0C00002EB0801014459451ADC3DB9013292B234
:10C0D000019B2280B35422880132228022880DF1F4
:10C0E0000B01324403A8FFF7B5FF0028D0D1218807
:10C0F0009DF80B200A442280012509F10109B9E7C6
:10C100000C20C5E72DE9F341089FBDF824801546B2
:10C11000CDE90078022204461E46FFF79DFF50B984
:10C120003346102229462046CDE9087802B0BDE802
:10C13000F041FFF791BF02B0BDE8F0812DE9F04F6B
:10C1400000231788138090F82D3085B006460D46E1
:10C15000144653B3082F01D80C2027E102A8FFF79B
:10C1600073FF002840F0228123880822EA542388A4
:10C1700001339BB21B222380EA542088013080B215
:10C18000208006220DF10901284405F010F82388CB
:10C190009DF8082006339BB212F0FE0218BF012260
:10C1A0002380EA54238801332380B378FBB12388AA
:10C1B0000433BB42D0D802A8FFF748FF002840F064
:10C1C000F58023880322EA54238801339BB2192285
:10C1D0002380EA542388BDF8082001339BB2E91874
:10C1E0002380EA54120A4A70238802332380F278AB
:10C1F0009AB12388D91CB942AED80221E9542388C8
:10C2000001339BB201212380E95423880B449BB264
:10C210002380EA5423880B4423807268AAB12388C0
:10C22000D91CB94298D8022192F90020E9542388F8
:10C2300001339BB20A212380E954238801339BB246
:10C240002380EA542388013323803389002B40F074
:10C25000A180338A5BB1CDE900472B460722032139
:10C2600006F11000FFF74EFF002840F09F80338B4F
:10C270005BB1CDE900472B461522142106F11800C9
:10C28000FFF740FF002840F09180326A002A40F01A
:10C290009080D6F82480B8F1000F30D0B8F8043080
:10C2A0002188981C8A1C0244BA423FF655AFFE28EA
:10C2B0003FF652AF03336B54238801339BB2FF2206
:10C2C0002380EA54238801339BB22380B8F80020EE
:10C2D000EA54E918120A4A702088023080B220809D
:10C2E000B8F804205AB1D8F8081000296BD02844B7
:10C2F00004F05DFF2388B8F804201344238096F8E7
:10C300002C30002B40F09880307800284ED03388B5
:10C31000012B58D0228802F1020CBC453FF61CAF1D
:10C32000012805D17378023313449F42FFF414AF00
:10C33000023FBF1ABFB202A905EB0C00ADF80870AE
:10C34000FFF786FE90BB3178BDF80830022900F077
:10C35000B98072789A4202D39F4280F0B18001295D
:10C3600040F0B280974293B2C0F0AE80ADF8083092
:10C370000821BDF80830FE2B3FF6EEAE22880133CF
:10C38000AB542288013292B22280A95422881344ED
:10C3900023800BE0CDE900472B460622022106F15F
:10C3A0000800FFF7AFFE00283FF453AF05B0BDE82B
:10C3B000F08FB4F800C00CF10603BB423FF6CCAEE0
:10C3C0001188052901D80720F0E76FF4486E01EBCA
:10C3D0000E039BB24FF27D3E7345F4D95388052B73
:10C3E000F1D96FF44860181880B27045EBD94FF658
:10C3F000FF70814201D09942E5D8052305F80C3041
:10C40000238801339BB212212380E954238801330E
:10C410009BB223801188E954E818090A41702388E7
:10C4200002339BB223805288EA54E918120A4A70F8
:10C430002388023323802CE7B36A002BC3D04FF04C
:10C4400000084FF00C0A4FF0160BB16A5FFA88F241
:10C450000AFB02F201EB0209B9F80430981CFE282D
:10C460003FF67AAE208803332B54238801339BB2E6
:10C47000238005F803B0238801339BB223808A5AB6
:10C48000EA54E918120A4A702088023080B22080EB
:10C49000B9F804205AB1D9F80810002993D02844DB
:10C4A00004F085FE2388B9F804201344238096F80D
:10C4B0002C2008F101085FFA88F39A42C5D823E7D7
:10C4C000092156E79F42FBD2ADF8087050E730B51E
:10C4D000C8B1F2B10024651C8D4206DA1588A54268
:10C4E00012D805196D789D420ED1A14211D9005D77
:10C4F00048B1013880B230B10234A3B210FA84F4EA
:10C50000A14206DB138030BD055D01352C44A4B289
:10C51000E1E70020F7E713B513460022ADF8062047
:10C520000DF106020446FFF7D2FF10B1BDF8063048
:10C53000E01802B010BD72DF704773DF704738B586
:10C54000012204460D46B0F81414D0F81004FFF789
:10C55000E2FF00B1057004F13C0204F5826104F1D0
:10C560005400BDE83840FFF7E6BF80F83010704750
:10C57000F8B504460F4600296DD000286BD091F81D
:10C580007A301BB191F89830002B66D14FF0000C37
:10C5900084F802C007F178060FCE251D0FC50FCE17
:10C5A0000FC596E8070085E8070084F830C0D7F883
:10C5B000A4306363D7F8A830A3634FF6FF7504F582
:10C5C0008263C4F82034A4F824540722614604F29C
:10C5D000264004F015FE23780BB984F8545094F8E3
:10C5E0002430002B14BFEE231F2304F15501C4F89F
:10C5F0001014A4F8143404F214423846FFF79EFDD8
:10C6000040BB94F82430002B14BFEE231F2304F208
:10C610003121C4F81814A4F81C3404F21C4207F1A8
:10C620003C00FFF78BFDA8B9A369A4F848304FF48C
:10C6300080730125A4F8503063692064014684F8B2
:10C640003C50636404F13C0204F15400FFF773FFB3
:10C6500000B92570F8BD0E20FCE70720FAE7F8B511
:10C66000077804460D46002F00F00A8100F22646A6
:10C67000817007220021304604F0C2FDE38813B127
:10C68000A378012B04D0E3794BB1A378022B06D118
:10C69000636BABB1012284F82D240820984704F283
:10C6A000274304F22D4113F8012B12B99942FAD114
:10C6B00017466B1E032B57D8DFE803F0050B0F124C
:10C6C00084F82D34EBE7A3791BB194F8243003B937
:10C6D0005FB9E3790BB1002F48D1237A002B47D102
:10C6E000637A002B0CBF00250425636BA570002B1B
:10C6F00040D0033D012D3DD86279002A3AD094F80C
:10C700002E24002A36D184F83024012284F82F24E4
:10C710000720984704F13C0518220021284604F020
:10C720006FFDE26A0123511E994284F83C3001D921
:10C73000042A00D1D3B294F8242084F8513042B1B5
:10C74000A36A591E012902D9042B18BF012384F8BA
:10C750005230A178002384F8503004291BD8DFE838
:10C7600001F0770D223559000025BEE70225BCE710
:10C770000325BAE7002384F82F34CBE7C4E910631C
:10C78000C4F820340223012284F83C30802384F84A
:10C790003120A4F84830A378002B5CD1636B002BC8
:10C7A0006AD1002067E00223002A84F8313014BFE8
:10C7B0000723032384F83C302369A4F8483000237E
:10C7C000C4F82034E36826646364E4E7636963645F
:10C7D000A369A4F8483012B1062384F83C30637989
:10C7E000B3B194F82E349BB994F8303483B102235A
:10C7F00084F8503004212046FFF7A1FE0028CAD15A
:10C80000052384F8313004F58263C4F82034C2E78C
:10C810000323F6E7E3696364236AA4F8483012B19E
:10C82000062384F83C30637983B194F82E346BB9D5
:10C8300094F8303453B1022384F850300421204658
:10C84000FFF77DFE0028A6D10623DAE70423D8E708
:10C8500084F831309FE7D4F820142A4604F15400BC
:10C86000FFF769FE38B994F8301094F85400FFF7D8
:10C8700064FE002892D0F8BD94F83100984790E704
:10C880000820F8E70388112B10B50C460AD0262B98
:10C890001FD0102B05D1C37B012B02D18388A1F8B7
:10C8A000243410BD0022838881F82E24B1F824247A
:10C8B0009A42F6D10B79002BF3D101212046FFF7E4
:10C8C000CEFE0028EDD0A36B002BEAD0BDE81040CF
:10C8D0001847037A013B012BE3D8897805230131FE
:10C8E000B1FBF3F303EB8303C91AC9B2E6E775DFC3
:10C8F000704776DF70477ADF70477BDF7047000054
:10C90000034B1A8882420CBF18460020704700BFB4
:10C9100044560020024B9B6903B11847704700BF83
:10C920002856002073B585B22846FFF7E9FF044674
:10C9300038B3174E027A337B9A420CD200F10A01C7
:10C940002846FFF7D4FFF0B111281AD002B0BDE895
:10C950007040FFF7DFBF00230372337C43B13B21FC
:10C960002846FFF7C6FF30F0080301D0FFF7D2FFDB
:10C97000736933B100228DF80420ADF8065001A888
:10C98000984702B070BD237A01332372F9E700BFE4
:10C990002856002037B50B46497A0F4A79B9D2E9B3
:10C9A00001141D7A0246002D18BF21465868FAF777
:10C9B00013FF78B103B0BDE83040FFF7ABBF0021F3
:10C9C0001972536933B10122ADF806008DF80420C5
:10C9D00001A8984703B030BD285600204B88028834
:10C9E0009A4212D842889A420FD380888B8840F2AC
:10C9F000F311884294BF021A421A9A4205D8084499
:10CA0000984234BF0020012070470020704700008A
:10CA10000388122B70B5014659D004D8102B1ED0B4
:10CA2000112B44D070BD502BFCD12F4BC288DB8919
:10CA30009A42F7D1038A022BF4D186883046FFF759
:10CA40005FFF05460028EDD001F1120000F006FA64
:10CA500038BB6868FAF7EEFE0028E3D009E0C37B34
:10CA6000012BDFD14FF6FF70FFF74AFF054620B9D3
:10CA70000420BDE87040FFF74DBF1C4A8E88068039
:10CA8000002303721368C0F80A305368C0F80E30F0
:10CA900010310A30FFF7A2FF134B6872DB89002BBD
:10CAA000C0D129463046BDE87040FFF773BF80888B
:10CAB000FFF726FF04460028B4D04068FAF7BAFE14
:10CAC00008B1FFF727FF4FF6FF732380AAE7868898
:10CAD0003046FFF715FF05460028A3D008310A307D
