:020000022000DC
:1070000000000420F97202002173020023730200C1
:10701000257302002773020029730200000000009C
:107020000000000000000000000000002B730200C0
:107030002D730200000000002F7302003173020064
:107040007D77020033730200E97C02003373020093
:107050003373020033730200E977020033730200D6
:107060003373020033730200337302003373020080
:1070700033730200357E0200337302003373020063
:107080003373020009950200337302003373020068
:1070900033730200337302004DDC020033730200CD
:1070A0003373020033730200337302003373020040
:1070B0003373020033730200000000000000000080
:1070C0003373020033730200337302003373020020
:1070D0003373020033730200337302003373020010
:1070E0003373020033730200F17C030000000000E0
:1070F0000000000033730200000000003373020040
:10710000000000000000000000000000000000007F
:10711000000000000000000000000000000000006F
:10712000000000000000000000000000000000005F
:10713000000000000000000000000000000000004F
:10714000000000000000000000000000000000003F
:10715000000000000000000000000000000000002F
:10716000000000000000000000000000000000001F
:10717000000000000000000000000000000000000F
:1071800000000000000000000000000000000000FF
:1071900000000000000000000000000000000000EF
:1071A00000000000000000000000000000000000DF
:1071B00000000000000000000000000000000000CF
:1071C00000000000000000000000000000000000BF
:1071D00000000000000000000000000000000000AF
:1071E000000000000000000000000000000000009F
:1071F000000000000000000000000000000000008F
:107200000348044B834202D0034B03B11847704735
:10721000B82C0020B82C00200000000005480649CA
:107220000B1AD90F01EBA301491002D0034B03B194
:1072300018477047B82C0020B82C00200000000030
:1072400010B5064C237843B9FFF7DAFF044B13B1AE
:107250000448AFF300800123237010BDD02C002020
:1072600000000000D418040008B5044B1BB1044909
:107270000448AFF30080BDE80840CFE700000000FD
:10728000D42C0020D4180400A3F5803A704700BF26
:10729000154B002B08BF114B9D46FFF7F5FF002152
:1072A0008B460F461148124A121A14F04BFD0C4B34
:1072B000002B00D098470B4B002B00D098470020A4
:1072C000002104000D000B4814F0A2FB14F0D4FBC5
:1072D0002000290006F080FB14F0A0FB000008004D
:1072E000000000000000000000000420D02C00205E
:1072F000EC6A002045BA03000649074A074B9B1A6F
:1073000003DD043BC858D050FBDC01F04BFBFFF71A
:10731000BFFF0000981A0400E02B0020D02C0020B2
:10732000FEE7FEE7FEE7FEE7FEE7FEE7FEE7FEE735
:10733000FEE7FEE7032806D8012A06D001291BD064
:10734000022908D071B107207047012911D0022904
:107350004FF00002F6D10B4B00EB4000034400203D
:107360005A707047074B00EB4000034408469A7080
:10737000704700F10E02D2B200EB40030149002039
:10738000CA547047EC2C002010B50388102B07D08E
:10739000112B04D1254B18680138186030B110BD8D
:1073A000224C216811B30131216010BD012202215C
:1073B000FFF7C0FF40B1072806D01D4B1B68002B0C
:1073C000EDD0BDE810401847072202210120FFF749
:1073D000B1FF08B10728F0D1002108460A22FFF7C3
:1073E000A9FF0028DBD00728E7D1D8E7012208460B
:1073F000FFF7A0FF38B1072805D00D4B1B6803B17C
:1074000098472168CFE7072202210120FFF792FF6A
:1074100008B10728F1D1042202210020FFF78AFFDA
:107420000028EED00728E8D1EBE700BFFC2C0020B5
:10743000F82C002010B568B90E4CA36801226270C8
:107440003BB1D3E900230020A2609847A368002B3A
:10745000F7D110BD0128FCD1064C2369A070002B88
:10746000F7D0D3E900230120226198472369002B3C
:10747000F7D110BD002D002070B910B5074CA368DE
:10748000012262703BB1D3E900230020A26098473B
:10749000A368002BF7D110BD704700BF002D00205E
:1074A00030B5012883B004D0032821D0B0B103B097
:1074B00030BD294C00230DF107008DF8073001F095
:1074C0008FFE23786BB3E3689DF807000133012238
:1074D000E360A27001F0AAFE03B030BD1F4B012291
:1074E000C3F88020BFF34F8FBFF36F8F03B030BD61
:1074F000194C00F015F900230DF107008DF8073045
:1075000001F06EFEE368013BE360E3681BB9144BD6
:10751000D3F80054C5B19DF8070001F087FE03B011
:1075200030BD10486360A3602361E36000F0ECF8B5
:1075300006F086FB60B10A4A01232370D2F80024CA
:10754000002AC0D0A370BEE700F0FCF8A570E2E707
:1075500000F0E6F8EFE700BF002D002000E100E0BA
:10756000000001403574020000B585B002460023DA
:107570000DF10F008DF807208DF80F3001F030FE6F
:1075800006F05EFB30B19DF80F0001F04FFE05B034
:107590005DF804FB09480DF1070104F087FD074879
:1075A00004F076FD0028EED000F01AFC9DF80F00E4
:1075B00001F03CFE05B05DF804FB00BF2819040093
:1075C00000B583B098B103280ED100230DF1070058
:1075D0008DF8073001F004FE0D480378012B0FD021
:1075E0009DF8070001F022FE03B05DF804FB084B94
:1075F0001B78012BF8D100F0F3FB00F0FDFBF3E763
:107600000449013000F0AAFB00F0D8FBE8E700BF16
:10761000642D00206975020030B585B00478456896
:107620008DF80040D0E90240064A074B039053F81A
:107630002130019552F821108DF80840684698478E
:1076400005B030BD682D0020702D002030B585B00C
:10765000047845688DF80040D0E90240064A074B9F
:10766000039053F82130019552F821108DF808400D
:107670006846984705B030BD682D0020702D002069
:107680002DE9F047DFF8748090F800E04B7F08F8B0
:107690000E300D46074616460FCD88B06C460FC417
:1076A00095E80F003D78DFF85890DFF858C018F8DB
:1076B000055049F82E6084E80F004CF82E00CDF8F4
:1076C00010E05DB1002E0B4A694607F1040008BFC7
:1076D000324600F041FF08B0BDE8F087002E064AB0
:1076E000694607F10C0008BF324600F09BFC08B069
:1076F000BDE8F087197602004D760200B86A0020D6
:10770000702D0020682D0020044A137923B901212F
:10771000106091801846704785207047782D0020B2
:10772000074B1A68D20704D4C02283F80023012231
:107730001A604FF080430122C3F81825704700BF3C
:1077400000E100E010B40B4B0B494FF080420020E9
:107750000224C2F8084383B018601B680193012318
:1077600001980B60D2F81834DB03FBD403B05DF84A
:10777000044B7047040100400C00004010B5174B4B
:107780001A6882B062B10021154A19601B685079ED
:1077900000934FF080410123009CC1F8083398B159
:1077A000104B1A68BAB100221A601B6801934FF09F
:1077B000804202210A4B0198C2F808131B6801207D
:1077C00002B0BDE810401847116853718847054B57
:1077D0001A68002AE7D102B010BD00BF00010040C6
:1077E000782D0020040100402DE9F047002384B0EB
:1077F000CDE90233D54A1168012900F040821E46C6
:10780000D34B1A68012A00F02C82D24B1A68012A45
:1078100000F01982D04B1A68012A00F00682CF4B83
:107820001A68012A00F0F381CD4B1A68012A00F092
:10783000E081CC4B1A68012A00F0CD81CA4B1A684E
:10784000012A00F0A181C94B1A68012A20D0E6B1B3
:10785000C74F00240125A30003F18043354203F5FF
:10786000C0434FEA45050BD0D3F8100557F8242044
:10787000D3F81015C0F30520C1F3014102B19047C0
:107880000134082CE7D1002E17DB04B0BDE8F087E7
:1078900000221A601B6801934FF0A042019BD2F8AE
:1078A0002015B44B0291C2F82015D3F8202503927D
:1078B000C3F82025002E40F08B81AD4CAD4E012544
:1078C0004FF0A04794F96000431C46D0C0F3C202B9
:1078D00004AB1A4400F0070312F8082C05FA03F36E
:1078E0001A42C1B200F03F0037D01F2800F22581B4
:1078F00002464FF0A04909EB820304EB000ED3F8D7
:1079000000C7D3F8008728F44038C3F80087CCF3C9
:10791000014C9EF93080D3F800E754F82880BCF180
:10792000020F0CBF4FF4403A4FF4003A05FA02F24E
:107930004EEA0A0EC3F800E7C9F82025B8F1000F97
:107940000BD08909032900F0B381BCF1020F00F0CC
:10795000BE81BCF1030F00F0A88194F96100411CC5
:1079600046D0C0F3C20204AB1A4400F0070312F879
:10797000082C05FA03F31A42C1B200F03F0037D0D9
:107980001F2800F2DE8002464FF0A04909EB820377
:1079900004EB000ED3F800C7D3F8008728F4403872
:1079A000C3F80087CCF3014C9EF93080D3F800E790
:1079B00054F82880BCF1020F0CBF4FF4403A4FF44A
:1079C000003A05FA02F24EEA0A0EC3F800E7C9F8D7
:1079D0002025B8F1000F0BD08909032900F06D8133
:1079E000BCF1020F00F06B81BCF1030F00F062816B
:1079F00094F96200421C46D0C0F3C20204AB1A44A0
:107A000000F0070312F8082C05FA03F31A42C1B27A
:107A100000F03F0037D01F2800F2AE8002464FF042
:107A2000A04909EB820304EB000ED3F800C7D3F89A
:107A300000879EF930E028F44038C3F80087CCF383
:107A4000014CD3F800A754F82E80BCF1020F0CBFF4
:107A50004FF4403E4FF4003E05FA02F24EEA0A0EA1
:107A6000C3F800E7C9F82025B8F1000F0BD0890949
:107A7000032900F01381BCF1020F00F02481BCF156
:107A8000030F00F0088194F96300431C45D0C0F354
:107A9000C20204AB1A4400F0070312F8082C05FADE
:107AA00003F31A42C1B200F03F0036D01F2867D856
:107AB00002464FF0A04909EB820304EB000ED3F815
:107AC00000C7D3F800879EF930E028F44038C3F8A7
:107AD0000087CCF3014CD3F800A754F82E80BCF1FA
:107AE000020F0CBF4FF4403E4FF4003E05FA02F285
:107AF0004EEA0A0EC3F800E7C9F82025B8F1000FD6
:107B00000BD08909032900F0CE80BCF1020F00F0F0
:107B1000E280BCF1030F00F0C380D7F82025029269
:107B2000C7F82025D6F820350393C6F8203513432F
:107B30007FF4C8AE04B0BDE8F08701F01F02B14683
:107B4000D9E601F01F02B14620E700BF0061004006
:107B500004610040086100400C6100401061004079
:107B600014610040186100401C6100407C610040CD
:107B7000802D00200003005001F01F02B14650E7A5
:107B800001F01F02B14696E7554AD2F804231206C7
:107B90007FF559AE00221A6019680091196E00989D
:107BA000012903F1600346F080067FF450AE1A60AD
:107BB0001B6801934FF0A042019BD2F82015494B5E
:107BC0000291C2F82015D3F820250392C3F820258E
:107BD00046F000463CE6424AD2F8042351067FF5BF
:107BE0002DAE00221A601B680093009B46F04006F1
:107BF00024E63B4AD2F8042390067FF51AAE002211
:107C00001A601B680093009B46F0200611E6344A78
:107C1000D2F80423D4067FF507AE00221A601B6851
:107C20000093009B46F01006FEE52D4AD2F804238F
:107C300015077FF5F4AD00221A601B680093009BC6
:107C400046F00806EBE5264AD2F8042357077FF5ED
:107C5000E1AD00221A601B680093009B46F0040609
:107C6000D8E51F4AD2F8042392077FF5CEAD002253
:107C70001A601B680093009B46F00206C5E5184990
:107C8000D1F8046316F001063FF4BAAD136013682F
:107C90000093009BB4E502297FF4F5AEC047F2E6FD
:107CA00002297FF43AAFC04737E702297FF455AE87
:107CB000C04752E602297FF49BAEC04798E60129EF
:107CC0007FF496AEF9E701297FF4DDAEE6E70129FE
:107CD0007FF443AEECE701297FF41FAFE3E700BF79
:107CE0000060004000030050014B1B68184700BFB4
:107CF000EC2D0020114B98421DD130B583B00023EC
:107D00000DF107008DF807300D4601F069FA0C4BB4
:107D10001C794CB99DF807001D6001221A7101F011
:107D200085FA204603B030BD9DF8070001F07EFAC9
:107D3000112003B030BD0020704700BF002000407C
:107D4000EC2D0020034B984203D1034B00221A6014
:107D50001A71704700200040EC2D0020134A137860
:107D600013BB10B40378124CDB07216006D5114910
:107D7000D1F8043543F00103C1F804350D4C0E4928
:107D8000D4F8003223F00103C4F8003243785B01D9
:107D9000DBB281F80D334FF400530B6001231370F5
:107DA00000205DF8044B704785207047F82D0020B7
:107DB000F42D002000D0004000E100E0064A074B0F
:107DC0000021116082B01268019201990122C3F86A
:107DD00004231A6002B0704700D1004000D0004078
:107DE0000349044A0123C1F808331360704700BFF8
:107DF00000D0004004D0004010B40A480A4C0B4A9E
:107E000001234FF40051C4F808330360C2F8801016
:107E1000BFF34F8FBFF36F8F054B00221A705DF8D1
:107E2000044B704704D0004000D0004000E100E067
:107E3000F82D0020074B0849084A0020186082B03E
:107E40001B680193019BD1F808051368C0B202B00A
:107E5000184700BF00D1004000D00040F42D0020A2
:107E600030B56E4AD2F8043399058BB068D5D2F894
:107E70002431002B64D00023C2F82431D2F82431FD
:107E800001934FF40171664B0198C2F8081393F8FF
:107E9000291009B901215160604902228DF818208A
:107EA000D1F88024C1F880249869D9680992002407
:107EB0000025CDE90710C3E90645D3E9001206A85D
:107EC0009047564AD2F81C31C3B1554B5869196ACC
:107ED00088426AD993F8281001F0FF00002964D184
:107EE000C2F81C01D2F81C11039103999C68186A0E
:107EF000196A205C01311962C2F81C05474AD2F8A0
:107F00004431DBB10021464BC2F84411D2F84401A0
:107F100093F829100090009809B1012111609A6925
:107F200062B1586AD96800229A610122CDE907102E
:107F30008DF8182006A8D3E9001290470BB030BD89
:107F4000364AD2F804335B07BBD5D2F80831002B90
:107F5000B7D0334B996900293ED00021C2F80811EF
:107F6000D2F8081104910499D868596AD2F81825F2
:107F700042545A6A996901325A625A6A8A42A0D1B5
:107F8000DA69002A31D0DD685C6A18699A610121DA
:107F90000022D860DA615A628DF81810CDE90754D2
:107FA000D3E9001206A890478BE71C4A0021C2F8CB
:107FB0001C11D2F81C210292029A5A69002A9DD003
:107FC00058699A688DF8181008905961079206A8A8
:107FD000D3E90012904791E7C2F80811D2F80801DE
:107FE00005900598D2F81825C7E793F8292012B90B
:107FF0000A4A01215160094A4FF40171C2F808137D
:10800000596ADA6808910024012007928DF8180057
:10801000D3E900129C6106A8904752E70020004077
:10802000002E00202DE9F041DFF8E48106792C23B1
:1080300003FB068382B093F82A30002B40F09E8029
:1080400005460C4600686D491746FFF753FE0028A9
:1080500040F090802368591C19D01F2B4FF001026B
:108060008ABF67494FF0A04103F01F0302FA03F3F0
:10807000C1F8083523681F2B86BF03F01F03604A31
:108080004FF0A04203F5E073032142F82310636828
:108090005A1C0BD01F2B86BF03F01F03584A4FF00A
:1080A000A04203F5E073002142F823102B68A26977
:1080B000C3F82425217D637D2A680B43C2F86C3503
:1080C000D4E900122B68C3F81425C3F80C15237DDE
:1080D000012B5FD02C2303FB06F308EB0302576050
:1080E000226948F803202A6897B30021237FC2F849
:1080F0001C11D2F81C2100922A68009FC2F844117A
:10810000D2F844112A6801913E4C0199C2F8044307
:108110002A6842F3073100294FEA123232DB01F1BB
:10812000604101F561415B01DBB281F800332A68EF
:1081300042F30733002B4FEA123109DB324C0122A4
:108140005B0901F01F0102FA01F144F823102A68CB
:108150002C2303FB0686012400230421C2F800150A
:10816000C6E9063386F82A4086F82930736102B0E2
:10817000BDE8F081112002B0BDE8F081082002B016
:10818000BDE8F081214902F00F025B011144DBB22E
:108190000B76CCE7A368591C0BD01F2B86BF03F0CE
:1081A0001F0317494FF0A04103F5E073002241F887
:1081B0002320E3685A1C1AD01F2B8ABF10494FF0A6
:1081C000A04103F01F03012202FA03F3C1F80835AE
:1081D000E3681F2B88BF03F01F0303F5E0738CBF18
:1081E00007494FF0A041032241F82320E3682A68A1
:1081F000A168C2F80835C2F810156BE7617E02006D
:10820000000300508000020000E100E0FCEC00E010
:10821000002E0020F8B53E4F047902682C2303FBA2
:10822000047300215B68C2F80015C3B10368394AC2
:10823000C3F80823036843F30732002A4FEA1331D7
:108240000EDB5209344D2032012301F01F0103FAE5
:1082500001F145F82210BFF34F8FBFF36F8F036812
:10826000D3F80C65D3F81455D3F80825D3F81015B6
:108270004FF0FF3CC3F814C5C3F80CC5036866454E
:10828000C3F808C5C3F810C50CD01F2E86BF06F072
:108290001F06224B4FF0A04306F5E0764FF0020C8C
:1082A00043F826C06E1C0BD01F2D86BF05F01F059E
:1082B0001A4B4FF0A04305F5E075022643F8256000
:1082C0004D1C0BD01F2986BF01F01F01134B4FF02F
:1082D000A04301F5E071022543F82150531C0BD057
:1082E0001F2A86BF02F01F020C4B4FF0A04302F57D
:1082F000E072022143F822100068FFF723FD2C23CF
:1083000003FB0474002384F82A306360F8BD00BFC7
:10831000002E00208402020000E100E00003005073
:108320002DE9F041314E05792C2303FB056304460A
:10833000586984B000284CD15A619960186283F85A
:1083400028002268C2F81C01D2F81C112268029190
:108350000121029F91602268D3F808C0C2F81C0175
:10836000D2F81C11019101991F6A196A1CF8077053
:1083700001311962C2F81C755A6812B104B0BDE827
:10838000F0815F691A6A216897421BD9864602E02C
:1083900093F828200ABBD1F81C21002AF8D0C1F894
:1083A0001CE1D1F81C210392039AD3F820801A6AA9
:1083B0001CF8088001321A62C1F81C851A6A9742BB
:1083C000E9D82168D1F81C31002BFBD00123CB6008
:1083D00004E0112004B0BDE8F0810F202C2303FB42
:1083E000056500236B6104B0BDE8F081002E00201C
:1083F00030B5574BD3F824218BB0002A75D000221A
:10840000C3F82421D3F82421049202228DF81820E5
:10841000049AD3F880144F4AC3F880140991D3F812
:108420003C15D3680891002400250793C2E906454E
:108430001168536806A89847454BD3F8442152B1B8
:108440000021444AC3F84411D3F8440191690390D0
:108450000398002938D13E4BD3F820215AB100218E
:10846000C3F82011D3F8202102920120394A029C3E
:10847000D8605069D8B9364BD3F85821AAB1002139
:10848000C3F85811D3F85801324A01900198506945
:1084900058B1D3F84C05936808908DF818105161C5
:1084A000079306A8D2E9001398470BB030BDD3F864
:1084B0004C05936808908DF818105161079306A831
:1084C000D2E900139847D6E7D3F83C35D168089332
:1084D00000240025012307918DF81830C2E90645D4
:1084E000D2E9001306A89847B5E7D3F81011002980
:1084F000A2D0C3F81021D3F81011164805910599A0
:108500008469D3F83C15A14296D1C469A4B1D3F8CB
:108510000052846125F02005C3F80052D0E90343DE
:10852000C26101220891C3600168436807948DF815
:10853000182006A898477FE7C26884610123CDE927
:1085400007218DF81830D0E9001306A8984773E783
:1085500000200040302E00202DE9F0430779824EA4
:1085600007EBC70306EB830387B093F82030002B9B
:1085700040F0B98004460D4600687C499046FFF7FC
:10858000B9FB002840F0AB802B68591C4FEAC709A3
:1085900019D01F2B4FF001028ABF75494FF0A0413F
:1085A00003F01F0302FA03F3C1F808352B681F2BF1
:1085B00086BF03F01F036E4A4FF0A04203F5E0733D
:1085C000032142F823106B685A1C0BD01F2B86BF67
:1085D00003F01F03664A4FF0A04203F5E073002149
:1085E00042F823102368AA69C3F82425297D6A7DEF
:1085F00023680A43C3F86C25D5E900312268C2F824
:108600000C35C2F814152B7D012B78D009EB07022D
:1086100006EB8203C3F804802B6946F82230B8F1D8
:10862000000F4BD021682B7F524D0022C1F8102142
:10863000D1F8101101912168DDF804C0C1F82021A2
:10864000D1F8201102912168DDF808C0C1F8242179
:10865000D1F8241103912168DDF80CC0C1F8442140
:10866000D1F8441104912168DDF810C0C1F85821F7
:10867000D1F85811226805910599C2F8045322686F
:1086800042F3073100294FEA123230DB01F1604139
:1086900001F561415B01DBB281F80033226842F3EE
:1086A0000733002B4FEA123109DB334D01225B09FE
:1086B00001F01F0102FA01F145F8231022684F442E
:1086C00006EB8706002301240821C2F80015C6E93D
:1086D000063386F82040736107B0BDE8F0831120AF
:1086E00007B0BDE8F083082007B0BDE8F083234958
:1086F00002F00F025B011144DBB20B76CEE7AB68F0
:10870000591C0BD01F2B86BF03F01F0318494FF0D5
:10871000A04103F5E073002241F82320EB685A1CC6
:108720001AD01F2B8ABF12494FF0A04103F01F033C
:10873000012202FA03F3C1F80835EB681F2B88BF4A
:1087400003F01F0303F5E0738CBF09494FF0A0410C
:10875000032241F82320EB682268A968C2F8083593
:10876000C2F8101552E700BF302E0020F18302003E
:10877000000300501003420000E100E0FCEC00E0C8
:108780002DE9F0410579564C05EBC50304EB830355
:1087900001465B68006882B0EE00C3B1514BC0F87F
:1087A00008330B6843F30732002A4FEA13330EDB1A
:1087B0005209DFF838C12032012703F01F0307FAFE
:1087C00003F34CF82230BFF34F8FBFF36F8F721952
:1087D00004EB8202D0F80032926923F02003C0F843
:1087E000003242B10023C0F84431D0F84431009344
:1087F0000123009A43600023C0F85831D0F8583163
:1088000001937319012204EB8303019FC2609A69EB
:10881000D0F85831002BFBD01AB1D0F84431002BDE
:10882000F6D00023C0F800350B684FF0FF38D3F8BE
:108830000CE5D3F814C5D3F80825D3F81075C3F8A0
:108840000C85C3F814850B68C645C3F80885C3F8C2
:1088500010850CD0BEF11F0F86BF0EF01F0E2249EF
:108860004FF0A0410EF5E07E022341F82E30BCF11E
:10887000FF3F0CD0BCF11F0F86BF0CF01F0C1A4934
:108880004FF0A0410CF5E07C022341F82C30791C1C
:108890000BD01F2F86BF07F01F0713494FF0A041D1
:1088A00007F5E077022341F82730531C0BD01F2A2D
:1088B00086BF02F01F020C494FF0A04102F5E072A2
:1088C000022341F82230FFF73DFA354404EB8504DA
:1088D000002384F82030636002B0BDE8F08100BF5F
:1088E000302E0020100342000003005000E100E0A1
:1088F000F0B401F06044B4F1005F82B02CD105798E
:10890000274E05EBC50406EB840403466069EF00BF
:1089100000283ED16261A1601A68C2F82001D2F835
:1089200020C11A68CDF804C0DDF804C0C2F85801AF
:10893000D2F8582100921A68DDF800C0D4F814C0AB
:10894000C2F84415C2F848C51A68012191606268EE
:1089500032B102B0F0BC7047102002B0F0BC7047DA
:108960001A6800E0C8B9D2F82011D2F858010029DD
:10897000F8D090B90121D1601B68D3F85821002AA2
:10898000FBD07B1906EB830300225A6102B0F0BCD6
:108990007047112002B0F0BC70470F20F1E700BF14
:1089A000302E002010B4814B1B68082B21D0804A48
:1089B000D2F8883043F47003C2F88830BFF34F8F89
:1089C000BFF36F8F794B1B68082B00F0AA804FF024
:1089D0001023D3F80022002AC0F2B680D3F8043264
:1089E000002BC0F2B180734B734A1A605DF8044BE0
:1089F00070474FF080414FF080520020C1F80C01C9
:108A00006E4BC1F81001C1F83805D2F80414C3F850
:108A10002015D2F80814C3F82415D2F80C14C3F8A2
:108A20002815D2F81014C3F82C15D2F81414C3F872
:108A30003015D2F81814C3F83415D2F81C14C3F842
:108A40004015D2F82014C3F84415D2F82414C3F802
:108A50004815D2F82814C3F84C15D2F82C14C3F8D2
:108A60005015D2F83014C3F85415D2F83414C3F8A2
:108A70006015D2F83814C3F86415D2F83C04C3F872
:108A800068054F49D2F84004C3F86C050968D2F86C
:108A90004424C3F87025052937D84A4B5B5C13B1D1
:108AA000494B4A4A1A604A4B5B5C63B13F4B4949A8
:108AB0001B68434AFB20C1F81805082B11687FF496
:108AC00076AF052921D8444B5B5C93B14348444BB6
:108AD000364C02681B682468394922F00F0203F003
:108AE0000F031343082C096803607FF460AF052966
:108AF0000BD83C4B5B5C43B12C4B3B4A1B684FF49F
:108B00000071082B11607FF452AF4FF08043D3F80F
:108B10000024D2077FF54BAF6FF00102C3F80024A9
:108B200045E7274B1B68052B08D94FF010224FF063
:108B30008043D2F80822C3F8582548E72B4AD35C73
:108B4000002B3FF444AFF0E7294A0123C2F8043573
:108B5000D2F80034002BFBD04FF010231221244A0E
:108B6000C3F80012D2F80034002BFBD04FF01023D2
:108B700012211F4AC3F80412D2F80034002BFBD094
:108B800000231B49C2F80435D1F80034002BFBD078
:108B9000BFF34F8F0649174BCA6802F4E0621343D4
:108BA000CB60BFF34F8F00BFFDE700BF3001001067
:108BB00000ED00E0E02B00200090D00300C000405A
:108BC000340100100CC503008C560040488103009E
:108BD0000CC5030000F000400CC50300E40E00408B
:108BE000580200100CC503004096024004C5030063
:108BF00000E001400400FA0500B585B003460021FD
:108C000001AA44F20100CDE90111039300F004F838
:108C100005B05DF804FB00BF10B572B604F038FB78
:108C200003F0ACFC0028FBD1104B114C1149E41AA5
:108C3000E408240444F0010003F0C8FD0E4B1B6857
:108C4000DB0700D500BE0D4944F0020003F0BEFD75
:108C5000BFF34F8F0A490B4BCA6802F4E06213431B
:108C6000CB60BFF34F8F00BFFDE700BF8819040042
:108C7000B819040020C50300F0ED00E02CC5030086
:108C800000ED00E00400FA05D0E90223D1E9020179
:108C9000994208BF90422CBF01200020704700BFBE
:108CA00010B5044682B000230DF107008DF807309F
:108CB00000F096FA23692BB94FF0FF324FF0FF33E3
:108CC000C4E902239DF8070000F0B0FAD4E90530AA
:108CD000984700230DF107008DF8073000F080FA67
:108CE0002369B3B1D4E902014A1C08BFB0F1FF3FC8
:108CF0000FD0C01841F10001C4E902019DF807003E
:108D000000F094FA0648214603F068FA012002B008
:108D100010BD9DF8070000F089FA002002B010BDD8
:108D20004CC503002DE9F04F87B0064600F0AAFBC2
:108D300040B1AA4AD2E9003113F1807341F1000138
:108D4000C2E900310021304600F0B8FBA44C60B30A
:108D5000236853B3A34B25681B7823B31DB3A248E4
:108D600000F0BCFB9D4BA149D3E90023D1E9008968
:108D7000121843F100034B4508BF424503D212F1DC
:108D8000807243F10003D5E902018B4208BF8242A1
:108D900080F02081013108BFB0F1FF3F03D094483B
:108DA000294603F01BFA002323600121304600F01E
:108DB00085FB002840F0F2808E4805A901F074FF81
:108DC00078B38C4D4FF0FF384FF0FF390BE0002B9C
:108DD00000F0958005A9284601F096FF05A92846D0
:108DE00001F062FFE8B10378012B11D0022BEED124
:108DF0007F4F384603F006FA30B1C0E902893846A1
:108E000003F000FA0028F8D1764B01221A70E1E74E
:108E100041682368994200F0B680754803F0FCF978
:108E2000D8E7DFF8CC81704FDFF8B091404603F00F
:108E3000EFF9002859D0D0E90223591C08BFB2F13C
:108E4000FF3F58D0216891B12168D1E902018B42DE
:108E500008BF82424CD22368D3E90223013308BF02
:108E6000B2F1FF3F03D02168404603F0B7F9404616
:108E700003F0C8F905463846AA68EB6803920293E6
:108E800000F02CFBD9E900AB584BD3E900231AEBD7
:108E9000000A4BF1000B9B4508BF9245DDE9023209
:108EA00003D21AF1807A4BF1000BB2EB0A0163EBAB
:108EB0000B0301930091DDE90001012871F100032A
:108EC0002ADBB0F5350F58D24FF49603002138460F
:108ED00000F052FA00284AD00D2821D00023404645
:108EE000236003F095F90028A5D12368002B6DD0ED
:108EF00007B0BDE8F08F404603F084F996E741687B
:108F0000D1E90223013308BFB2F1FF3F3FF462AF62
:108F1000374803F063F95DE70021384600F0C2FAF4
:108F2000304B1B78002BD9D0384600F0D7FAD9E95E
:108F300000232E49D1E900AB121843F100035B4531
:108F400008BF524503D212F1807243F10003D5E904
:108F500002018B4208BF82421CD2013108BFB0F12E
:108F6000FF3FBBD02946404603F038F9B6E72368F7
:108F700063B1256007B0BDE8F08F384600F0AEFA67
:108F80001D4A0244A0E70023236023E7304600F097
:108F9000C5F9EEE72846FFF783FE9FE71248134D19
:108FA00000F09CFA0D4BD3E90089D5E9002318EBBA
:108FB000000849F10009994508BF904503D218F10E
:108FC000807849F10009C5E90089F5E6304600F0EE
:108FD000A9F98DE72846FFF763FEE4E6582E002046
:108FE000D82E0020602E0020E42B0020D02E002060
:108FF0004CC50300BC2E0020FFFFB40010B5134B7E
:1090000013491B68134882B058220193082301F0CA
:10901000D3FD044610B1204602B010BD0E4A0F48E1
:1090200001A900F01BF904460028F4D10B480121E6
:1090300000F01EFA01231946094A084800F076F9A3
:10904000084B012220461A7002B010BD48C503002B
:10905000642E0020BC2E0020258D0200E42B002071
:10906000FFFF7F00602E00208AB130B4A1F1010122
:109070000368B1FA81F14FF0FF344FF0FF35490931
:10908000C3E90412C3E90245002030BC7047072041
:10909000704700BF2DE9F04383B00546002401A8C6
:1090A00017460E468DF8044000F09AF8D5E90223E1
:1090B000013308BFB2F1FF3F07D09DF8040000F074
:1090C000B5F8204603B0BDE8F0831D4800F006FA6D
:1090D0001C4B1D49D3E90023D1E90089121843F143
:1090E00000034B4508BF424525D3921943F10003C5
:1090F000C5E902239DF8040000F098F82B69AF61E0
:1091000003B12E61114801A901F090FD78B100244E
:109110004560047001A90D4801F0B6FD0028D1D0CA
:10912000074800F0DFF9204603B0BDE8F0830420D3
:1091300003B0BDE8F08312F180726341D5E700BF50
:10914000E42B0020582E0020D02E0020BC2E002022
:1091500030B583B00446002501A88DF8045000F016
:109160003FF8D4E90223013308BFB2F1FF3F1BD01F
:109170004FF0FF324FF0FF339DF80400C4E90223A3
:1091800000F054F80F4801A901F050FD48B1012347
:109190004460037001A90B4801F076FD58B903B093
:1091A00030BD042003B030BD9DF8040000F03EF84F
:1091B000284603B030BD044800F094F9284603B0B7
:1091C00030BD00BFBC2E0020E42B0020401A20F050
:1091D0007F407047014800F081B900BFE42B0020B8
:1091E00070B4EFF3108472B60D4B9A68AAB90D49AA
:1091F0000D4E01259D60D1F8805035401D60C1F8AD
:109200008060D1F884505D604FF0FF33C1F8843046
:10921000027004B962B670BC704701230370F8E7AE
:10922000BC6A002000E100E0FC06FFBD094B9A6823
:109230007AB170B910B4EFF3108172B6064A1C68A7
:1092400014605C685460986001B962B65DF8044BC4
:1092500070477047BC6A002000E100E070B5274C01
:109260004379274E04EBC30546F823202D79002DC2
:1092700037D103680A88C3F8082590F904308A7842
:10928000002B26DB03F1604303F561435201D2B2A8
:1092900083F8002390F90430002B07DB194903F011
:1092A0001F0501225B09AA4041F823204279164B91
:1092B000164D44F83200581B04EBC204C0080123C9
:1092C00000041349237140F0030003F07FFA0020EB
:1092D00070BD104903F00F0352011944D2B20A764F
:1092E000D8E70A4B08480C49C01AC008000440F0EF
:1092F000020003F06BFA082070BD00BFDC2E0020D6
:10930000E42E002000E100E0C819040088190400E0
:109310007CC50300FCEC00E058C503000368012293
:109320001A607047036801225A607047F0B40468FD
:109330004FF480358D40C4F80853066801F150049D
:10934000C6F84853A4000668A4B20027375182B07B
:1093500036590468019601F5A87122F07F42019EFA
:1093600044F821200268C2F8445313B10368C3F8DB
:10937000045302B0F0BC70472DE9F04704464FF4A7
:10938000803600688E40C0F848632068C0F80863E3
:10939000206800EB81058A46D0F80415D5F8400511
:1093A000C5F840150AF15005AD002768ADB24FF081
:1093B000000847F8058082B0401A7F59009720F0D6
:1093C0007F40012822F07F479946009A41D02268C9
:1093D000D2F80455C2F844637A1B22F07F42012A76
:1093E0000AF5A87125D0226842F821702068D0F8CB
:1093F00004557A1BC9F1FF13013A03F57F4322F0AC
:109400007F42934211D342B1C0F8446323680020E5
:10941000C3F8046302B0BDE8F087013740F821705B
:109420002068D0F804359D42EED00D2002B0BDE892
:10943000F08720680D4B013740F8217043F001039D
:109440004FF4806098472068D0F804359D42DBD007
:10945000EBE7064A4FF4806042F001029047226831
:1094600042F8058052590192019AB0E790C5030075
:1094700002680223C2F8443311B10268C2F804330F
:10948000704700BF0368D3F8040100B97047002299
:1094900082B0C3F80421D3F804310193019B012069
:1094A00002B0704702684FF4803303FA01F1C2F84A
:1094B00048130368C3F80813704700BF5031890090
:1094C000036889B2585800B9704700225A5082B0D8
:1094D0005B580193019B012002B070470368D3F8E9
:1094E0000405704790F90430002B09DB5A09054840
:1094F000403203F01F03012101FA03F340F8223048
:10950000704700BF00E100E0024A034B10681B688F
:10951000184700BFDC2E0020E42E00200223F0B507
:109520000B8000F580550830002A33D02B4F4FF6C2
:10953000FF764FF0010C036801331FD0B0F802E052
:109540000EF1030400EB8404A5421DD38388B342CB
:1095500015D003889BB183685C1C10D03C689C428A
:1095600002D23B60B0F802E00B88033373440B80F7
:109570004388033300EB83008542DCD8F0BD82F8DA
:1095800000C0B0F802E0EFE7012313704FF48063EE
:109590000B80F0BD114E4FF6FF7403680133EDD020
:1095A0004388DA1C00EB82029542EFD38288A24204
:1095B00009D002883AB18268571C04D03768BA4291
:1095C00084BF326043880A88033213440B80438887
:1095D000033300EB83008542DFD8F0BD202F00204D
:1095E000F0B543688C461BB1324AD468A3423CD2E2
:1095F0000023314EACF8003073684FF0010E03F5D4
:1096000080544FF6FF7708339C420ED8BEF1020F0C
:10961000ACF800E006F114064AD0736803F58054F4
:1096200008339C424FF0020EF0D91A680132EDD097
:109630005A88033203EB82029442E7D39D88BD42ED
:1096400009D01D883DB19D68691C04D00168A942FC
:1096500005D01346D8E79442D8D91346E5E7174A10
:109660004360138903810120F0BD12699342BFD882
:1096700013F00305BCD1114A048912899442B7D171
:1096800004689A689442B3D10B484268934203D964
:1096900002F58052934207D38269934208D902F5BA
:1096A0008052934204D20125ACF800500120F0BD55
:1096B0000020F0BDB82C0020282F00200C2F002007
:1096C0002DE9F04F9C4E8BB004464FF6FF7735687E
:1096D000002D00F0CB802A78531E052B00F29081DC
:1096E000DFE803F05C2323030341002C40F0C58036
:1096F0002B79012B00F0BC82022B00F0DA80002BCA
:1097000000F08E820DF11408C8E902440594C8F8EF
:10971000104048F20E6406942B78013B052B4DD87F
:10972000DFE803F0756685799949B5F814A0002C37
:1097300040F05082DFF82082A97D0AEB8A0308EB13
:1097400083034FEA8A091C895B6803EB84040629BA
:1097500000F27984DFE811F027021402FA01E70130
:10976000C601AC019201002C40F08780DFF8ECC10B
:109770009CF80C30002B00F0C4809CF800308CF872
:109780000C40013B062B00F23B81DFE813F0150390
:10979000EF0224010C013901D902E900002C40F04C
:1097A00011822B79032B00F29F80DFE813F05B011D
:1097B00072005001340105238DF814305F4C04F120
:1097C000100554F8043B404603B19847A542F8D130
:1097D0005B495C480024346001F096FA5A48012144
:1097E00001F064FB00287FF472AF0BB0BDE8F08F8E
:1097F00001238DF814302B89ADF82030AB88ADF8FB
:109800002230EB68079300238DF82430D6E700233D
:109810008DF81430D2E703238DF81430EB88ADF8BF
:1098200020302B89ADF82230EB680793C6E702237E
:109830008DF814302B89ADF82030AB88ADF822308C
:10984000EB680793AB7DA3F10603B3FA83F35B09DF
:109850008DF82430B2E704238DF81430EB88ADF88E
:1098600020300023ADF822300793A7E7344935486C
:1098700001F01AFA054630602DE74FF406440DF169
:1098800014080023C8E90033C8E90233C8F81030CF
:1098900041E7DFF8C48098F80030022B12D098F826
:1098A0001430022B00F0A683284B012100221970EE
:1098B0005A600DF114080024C8E90344C8F80840B0
:1098C000059428E700239A001A4408EB820300203D
:1098D00059680090082308F822001D4A1D4801F02D
:1098E00059FF002881D03568184A0DF1140800236B
:1098F000C8E9023353600593C8F8103048F20D648C
:1099000009E79CF80030072B09D8DFE813F0D802EC
:10991000080008000C03F60229002900D202013BCE
:10992000062B6DD8DFE813F04802220257003F00F3
:109930006C000C021C0000BF242F0020F42E00201D
:109940001C2F0020DC2F0020EC2F0020042F0020F3
:109950009CC50300B82C0020282F00200C2F0020CD
:10996000B94BBA4A1968BA4800230093CCF80430BE
:1099700007238CF80030082301F00CFF0446002C6C
:109980003FF433AF35680DF1140841F61D52002342
:109990009442C8E90333C8F80830059308BF1C4651
:1099A0003FF4B9AE14E3BCF80230DFF8C08203EB39
:1099B000830308EB8308D8F80C30002B40F0498271
:1099C00004228CF80020D8F80410A148012201F0EC
:1099D0007FFF0446D3E7DCF804209B485388848843
:1099E00001689B4803339BB29B0001EB8401002478
:1099F000009403248CF8004001F0CCFE0446BEE73E
:109A00000DF114080023C8E90333C8F808300593A2
:109A100048F20E647FE68F4B8B4C5B88DFF84C82FC
:109A20002168002203EB83032A7108EB8300009274
:109A3000A58808F82320058143682360022541603A
:109A4000854AA5800823824801F0A4FE49E77E4AA2
:109A50007F481168002302242B719480012201F0B9
:109A600037FF3EE7784B794A1968794801232B7113
:109A700000230093082301F08DFE32E72A4641F6C9
:109A80001D5409EB0A0108EB8101EB8808890333B7
:109A900003440B81D144EB8808EB8908C3F57F436D
:109AA000B8F80A10FD330B441546A8F80A306AE7E7
:109AB0006A4B6B4A1C88516865486A4A00234FF01C
:109AC000060C85F816C00093042301F063FE18BB52
:109AD00004EB840408EB8408012388F810300BB0F1
:109AE000BDE8F08F5E48AB695C4903604FF0000B46
:109AF000C0F804B0FFF774FD002800F06C82022368
:109B0000AB7504235248CDF800B02146EA1801F0A5
:109B100041FE00283FF469AEAB7D3268022B48F26B
:109B20000D64B7D9ADE7EB882A6949484FF0010CBD
:109B300004F10C01002485F816C09B00009401F08C
:109B400029FE0028E8D10BB0BDE8F08F2B69404812
:109B5000002B14BF032301230022AB7504F108017D
:109B60000092042305F10C0201F014FE00283FF4DA
:109B70003CAEAB7D3268022B48F20D648AD980E797
:109B8000032A0CBF052306230022AB753048009240
:109B9000211D042305F1080201F0FCFD0028BBD1C2
:109BA0000BB0BDE8F08F02230022AB7504230092B6
:109BB00027482146EA1801F0EDFD0028ACD10BB092
:109BC000BDE8F08F284B00225A604FF406440DF197
:109BD000140856E6AB7DDFF89480022B08D90AEB17
:109BE0008A0208EB8202EB88118903330B4413814C
:109BF0004FEA8A0909EB0A01EB8808EB8101C3F5FA
:109C00007F434A890DF11408FD3313440022C8E94B
:109C100003224B81C8F8082005924FF406447AE5E8
:109C200002232B71CDE906440DF11408EB6805936E
:109C300040460DF11201FFF7D3FC002840F0A0814F
:109C400048F209641DE600BFF02F0020A4C5030000
:109C5000B82C00200C2F00209CC50300FC2F0020F6
:109C6000E82E002098C50300042F0020282F002094
:109C7000BC4B1B78002B00F09D81DFF8ECE2BEF8B6
:109C80000490B9F1010F12D8DFF8F082039409EBC8
:109C9000890208EB8202137883B109F1010399B2BA
:109CA00001299946AEF8043002F11402F3D9AE4806
:109CB0000822002112F046F83568FAE55368DEF80C
:109CC000001003F5805C03F1080A002900F07081A0
:109CD0004B88033301EB83018C4506D8039BCEF8F8
:109CE0000030DAE79C45F9D919460B680133F5D005
:109CF0004B88033301EB83039C45EFD38C88BC4234
:109D0000F0D0B1F800B0BBF1000FEBD088680130A3
:109D1000E8D0EB88CEF80010A342D6D10023009300
:109D2000924A9348042301F035FD002840F08081D9
:109D300009EB890908EB8908012388F8103054E5FC
:109D4000BCF80220DFF834829300134408EB830848
:109D500006200023D8F80410864A00938CF80000EF
:109D60000823834801F016FD044608E6BCF802000B
:109D7000DFF80882DCF8042000EB800308EB8303A3
:109D80004FEA800E596801F58055002A40F0E480C2
:109D900001F10802AA426DD3704408EB8008D8F89C
:109DA0000C30002B55D104208CF8000001227048A3
:109DB00001F08EFD0446E2E59CF80A3063B1DFF85D
:109DC000BC81D8F80C3000228CF80A2023B998F80E
:109DD0001020002A40F032819CF80B3053B1DFF89C
:109DE0009C81D8F8203000228CF80B2013B998F809
:109DF000243073B90DF114080023C8E90333C8F8FF
:109E000008308CF80030ACF80230CCF80430059300
:109E100081E4012318464FEA830E0EEB030108EBA1
:109E20008101DCF804204968ACF8020001F5805596
:109E3000002A00F005815088033002EB8002954231
:109E400000F2DA80734408EB8308D8F80C30002B5A
:109E5000A9D0494B4648196802229A8005228CF8FD
:109E600000200023012201F033FD044687E5AB42C8
:109E700092D21A46136801338ED05388033302EB13
:109E80008303AB4288D89488BC42F0D01488002C5D
:109E9000EDD094680134EAD0CCF80420364C5388D5
:109EA000A5882168324803339BB29B0001EB8501F2
:109EB0009DE501238CF800309CF80A307EE7DFF83E
:109EC000BC80BCF8081098F8142098F80030B2FA5A
:109ED00082F252090131B3FA83F35B098CF80B204B
:109EE000ACF80810002201218CF80A30ACF80220EE
:109EF0008CF80C208CF8001060E7BCF80220DFF82A
:109F00007C801D4902EB820308EB83030C685868D0
:109F10008D885C600860002402201D811C7488808C
:109F200002FA00F311E7BCF80200134CDFF84C8092
:109F3000DCF80420A388558800EB800108EB810140
:109F4000033349682B444FF0020901F58055A38083
:109F500000FA09FE8CF800905388033302EB830269
:109F600018E700BF042F00200030002098C5030030
:109F7000B82C00209CC50300F02F0020282F0020C3
:109F80000699334A8B88EB800B882B8131480094EB
:109F90000423BDF8124001F0FDFB38BB2E4B04EB4F
:109FA000840403EB8404012323740BB0BDE8F08F19
:109FB000514691E60DF1140821462848082211F077
:109FC000C1FEC8E902440594C8F8104048F2016493
:109FD0003568FFF7A0BB0DF11408C8E90200059031
:109FE00048F20964C8F81000FFF795BB356848F2DD
:109FF0000D6446E4012366E4106801303FF422AFAB
:10A000005088033002EB80008542FFF41BAF948838
:10A01000BC4205D014881CB1946801347FF43CAF75
:10A0200085427FF60FAF024610680130E8D109E79C
:10A03000356848F20D640DF1140822E41846EAE68A
:10A0400001F10802FBE62A4648F20E6419E500BF5A
:10A0500098C50300B82C0020282F002000300020D5
:10A060004068FFF72DBB00BF094A116804290BD0D7
:10A0700038B5084C156803460121104644F82530D0
:10A0800000F006FF002038BD48F20B60704700BFAB
:10A09000F82F0020F42E00202DE9F04F974D89B0C5
:10A0A0002A780023CDE90333CDE90533079372B154
:10A0B000934C04F1100554F8043B03A803B19847EE
:10A0C000A542F8D10024204609B0BDE8F08F281D34
:10A0D00002F0FF0900F0F8FE0028F3D140F6F87313
:10A0E0001B685C1C41D04FF0805211695269DFF847
:10A0F0003C828449C8F810304046A3F54053002202
:10A10000C8F80C3001F018FB04460028DBD17E496A
:10A110007E48DFF81CA21C238C2200F04DFD264651
:10A120004FF0030B2746D8F80C30F018F35827D01F
:10A13000774A934279D14368764A934278D0013284
:10A14000934222D1B9F1000F40F09C80724B7349C9
:10A15000186000220193FFF7E1F9019B9B88022B15
:10A160000CBF042308231C4328E06D4B4FF08052A2
:10A170001B6811695269581C08BF02FB01F3B6E75E
:10A180005A1C02D0624A93420AD1031D00F5805145
:10A1900001E0994261D01A68013203F10403F8D05A
:10A1A00007EB87030AEB830203210BF1FF3B013727
:10A1B0000AF823101FFA8BFBBFB2506006F58056D9
:10A1C000B6F5405FAFD1BBF1010F40F29080E4B231
:10A1D000062C0ED14A4C012200232A7004F11006ED
:10A1E0006B6054F8043B03A803B19847A642F8D12A
:10A1F00068E702D814F0FD0F79D002A9434800F0B7
:10A2000015FD1C220546002111F09CFD002D68D093
:10A210000123013C2B700A2C4ED8DFE804F04B4D93
:10A220004B4D5F4D5F4D5C655C000133B8D1ACE7D1
:10A2300007EB870300220AF8232099000AEB830327
:10A2400001F1100208315244514458600137FFF7C0
:10A2500065F944F00204BFB2B0E72F4B1A681AB395
:10A2600007EB87030AEB83010222DFF8B8C04860DE
:10A270000A810AF82320791CACF802708FB244F0EE
:10A2800001049BE7274A244B578007EB870E0AEB14
:10A290008E024FF0020C19680AF82EC00137516087
:10A2A000A2F808C0BFB252E7022218609A804FF0AD
:10A2B0000109E4E700232B7102A9144800F0E4FC33
:10A2C0001948012100F0D6FD044600287FF4FAAEBB
:10A2D000FFF7F6F9F7E603232B71EDE701232B7166
:10A2E000EAE748F20764EEE602232B71E4E7002375
:10A2F0002B7048F20A646B60E5E600BF042F002073
:10A30000F42E0020C4C70300502F0020DC2F0020B3
:10A31000DEC0ADDEFE011EF1F02F0020F42F002084
:10A32000141000100C2F0020EC2F0020B82C00205F
:10A33000282F002030B370B50D4682B0F1B10DF179
:10A3400006010446FFF74CF918B948F2096002B05B
:10A3500070BDBDF806000D4B666800EB800003EB96
:10A36000800001210C3000F093FD2E606368012213
:10A370000C3300206B60A27202B070BD48F2046022
:10A3800002B070BD48F20460704700BF282F002063
:10A3900010B310B582B00DF106010446FFF720F9A5
:10A3A000B0B1BDF806300E4A03EB830302EB830322
:10A3B000DA684AB1A27A3AB1DA680021013A08466D
:10A3C000DA60A17202B010BD48F2056002B010BDA3
:10A3D00048F2096002B010BD48F20460704700BF47
:10A3E000282F00202DE9F047514B1B7882B083B312
:10A3F0000C46002945D00A884FF6FF739A4222D0B6
:10A400004B8803B34D6815F0030534D1B1F80890BB
:10A4100009F103039BB240F2FE32934234D8454A1D
:10A420001178074639B9508911890144194489B214
:10A43000B1F5806F2BD9117D89B148F206652846A8
:10A4400002B0BDE8F08748F20365284602B0BDE8D7
:10A45000F08748F20165284602B0BDE8F087D08B4E
:10A46000918B0144194489B2B1F5806FE5D84FF062
:10A47000010841460DE048F20265284602B0BDE8F9
:10A48000F08748F20465DAE748F20865D7E7A8469E
:10A4900029464FEA810A8A4402EB8A0A034401A949
:10A4A0002548AAF80A3000F0C1FB1C22064600210C
:10A4B00011F048FC002E2FD002234FF0000AA6F81E
:10A4C0001480337086F816A06368336101211B483D
:10A4D00000F0DEFCF0602388338163881648B38087
:10A4E00001A9A6F80AA0A6F8069000F0CDFB47B196
:10A4F000C7F804A0F268124B3A601B8987F80AA0DB
:10A500003B811048012100F0B5FC0446002896D19B
:10A51000FFF7D6F8254692E7BAF80A30C9F57F4921
:10A5200009F1FD099944AAF80A9048F2076586E7FF
:10A53000042F0020282F0020DC2F0020202F0020B7
:10A540000C2F0020EC2F00202DE9F04782B068B3DB
:10A55000524B1B78002B41D00C4639B30A884FF67A
:10A56000FF739A4234D04B8893B34E6816F00306BB
:10A570003AD1B1F808A00AF103039BB240F2FE32CF
:10A58000934234D8464A1178054639B95189108921
:10A590000844184480B2B0F5806F2BD9117D59B1B1
:10A5A00048F20666304602B0BDE8F08748F204661D
:10A5B000304602B0BDE8F087D18B908B0844184438
:10A5C00080B2B0F5806FEBD84FF00109484613E038
:10A5D00048F20366304602B0BDE8F08748F20166F3
:10A5E000304602B0BDE8F08748F20266DAE748F28A
:10A5F0000866D7E7B14630464FEA8008804402EB50
:10A6000088080B442748A8F80A3001A900F00EFB7F
:10A610001C220746002111F095FB002F32D04FF08D
:10A6200000080323A7F814903B7087F8168063682E
:10A630003B6101211C4800F02BFCF86023883B8122
:10A640006388BB800423A7F806A0BB752B68BB6199
:10A6500001A91448A7F80A8000F016FBC5F8048089
:10A66000FA68124B2A601B89114885F80A802B81F1
:10A67000012100F0FFFB0446002893D1FFF720F8EA
:10A6800026468FE7B8F80A30CAF57F4A0AF1FD0A74
:10A690009A44A8F80AA048F2076683E7042F00202E
:10A6A000282F0020DC2F0020202F00200C2F00203E
:10A6B000EC2F002070B51D4B1B7882B00BB34FF60A
:10A6C000FF739842044626D001A9194800F0AEFA5B
:10A6D0001C220546002111F035FBBDB105230126E2
:10A6E000EC8001A92B7012482E7100F0CDFA1148B0
:10A6F000314600F0BFFB044690B10024204602B072
:10A7000070BD48F20164204602B070BD48F2076493
:10A71000204602B070BD48F20364204602B070BD0E
:10A72000FEF7CEFF204602B070BD00BF042F002010
:10A73000DC2F0020EC2F002010B5194B1B7882B0C5
:10A74000F3B101A9174800F071FA1C220446002158
:10A7500011F0F8FAF4B106232370124801A900F0B1
:10A7600093FA114B1A780AB101221A730F4801218A
:10A7700000F080FB044640B10024204602B010BD2A
:10A7800048F20164204602B010BDFEF799FF204652
:10A7900002B010BD48F20764204602B010BD00BFF1
:10A7A000042F0020DC2F00200C2F0020EC2F002095
:10A7B0002DE9F047324C2478002C59D0002A5BD088
:10A7C000002B59D09F88012F14D82E4E07EB8704F9
:10A7D0008A4606EB84064FF6FF7E4FF00008347879
:10A7E0005CB10137BCB2022C9C8006F114064FF01C
:10A7F0000107F4D148F2096035E01C68756805F579
:10A80000805C002C31D06588033504EB85046445F9
:10A8100005D3C3F80080E4E7AC45FAD92C46256897
:10A820000135F6D06588033504EB8505AC45F0D3DA
:10A83000B4F80490F145EFD0B4F80090B9F1000FEE
:10A84000EAD0A1680131E7D01C60A5888542D5D146
:10A8500025885545D2D1A168116019680A4B51600D
:10A860001B8913810020BDE8F08705F10804CEE7BD
:10A8700048F20160BDE8F08748F20460BDE8F08767
:10A88000042F0020282F00200C2F0020304B1B7895
:10A89000002B56D0002957D0002A55D02DE9F04181
:10A8A000B2F804E0BEF1010F14D82A4D0EEB8E036E
:10A8B00005EB83054FF6FF774FF0000C2B7863B163
:10A8C0000EF101039BB2022B938005F114054FF0AA
:10A8D000010EF3D148F209602EE013686C6804F5AC
:10A8E00080585BB35C88033403EB8403434505D392
:10A8F000C2F800C0E4E7A045FAD923461C68013439
:10A90000F6D05C88033403EB8404A045F0D39E8822
:10A91000BE42F0D01E88002EEDD09E680136EAD0EF
:10A9200013601C888442D9D19B680B6012680A4B63
:10A930004A601B890B810020BDE8F08104F1080307
:10A94000D4E748F20160704748F20460704700BFE6
:10A95000042F0020282F00200C2F0020304B1B78C4
:10A96000002B56D0002957D0002A55D02DE9F041B0
:10A97000B2F804E0BEF1010F14D82A4D0EEB8E039D
:10A9800005EB83054FF6FF774FF0000C2B7863B192
:10A990000EF101039BB2022B938005F114054FF0D9
:10A9A000010EF3D148F209602EE013686C6804F5DB
:10A9B00080585BB35C88033403EB8403434505D3C1
:10A9C000C2F800C0E4E7A045FAD923461C68013468
:10A9D000F6D05C88033403EB8404A045F0D39E8852
:10A9E000BE42F0D01E88002EEDD09E680136EAD01F
:10A9F00013609C888442D9D19B680B6012680A4B13
:10AA00004A601B890B810020BDE8F08104F1080336
:10AA1000D4E748F20160704748F20460704700BF15
:10AA2000042F0020282F00200C2F002020B119B166
:10AA300003680B600020704748F20460704700BF55
:10AA40005A4B1B78002B00F0A9802DE9F04F0446EB
:10AA500083B0002800F0A5801222002111F072F9C5
:10AA6000DFF84CE1608821896589B4F80C80DFF853
:10AA7000449103237246238000264FF6FF7C1389FE
:10AA80005789D2F804A03B449BB2BAF1000F55D0CD
:10AA9000DAF800704F4551D1DAF8047007F16E67AB
:10AAA00007F5FF370237012F48D8B70037440EEBC0
:10AAB00087071D44FF680192384480B2608057893F
:10AAC000C3F580639BB239444345ADB289B288BFB8
:10AAD000A38121816581576888BF984607F10803E3
:10AAE00007F580571A68013221D0B3F802A00AF1A5
:10AAF000030A03EB8A0A57453AD3B3F804A0E245A8
:10AB000020D0B3F800A0BAF1000F1BD09A68013230
:10AB100018D0B4F804A00AF1010AA4F804A0B3F80C
:10AB200002A00AF1030A03EB8A039F42DAD8019AD2
:10AB300014328EB3002003B0BDE8F08F2788013FA8
:10AB40002780B2E7B4F806B0B4F80EA00BF1010B01
:10AB5000A4F806B0B3F802B00AF1030ADA44A4F884
:10AB60000EA0B3F802A00AF1030A03EB8A03DCE7A4
:10AB70004FF0010AB4F80EB084F810A0B4F806A0A3
:10AB8000019AFB1A0BEBA3030AF1010AE381A4F873
:10AB900006A01432002ECDD1012670E748F20160E4
:10ABA000704748F2046003B0BDE8F08F042F002026
:10ABB000282F0020DEC0ADDE99B110B4B2FBF3F453
:10ABC00003FB1424A4B244B9C0E900148460828158
:10ABD000C38120465DF8044B704709205DF8044BA3
:10ABE00070470E20704700BF82B050E8022FC18826
:10ABF000B2EB324F4FF0000317BF92B241EA01416E
:10AC000042EA014104E04268B2EB324F08BF01233F
:10AC100040E80212002AE8D18DF807309DF807308D
:10AC2000002B0CBF1120002002B0704730B482B05E
:10AC300050E8013F9DB2C48925448489A54228BFBC
:10AC40002D1B0489A54202BFBFF32F8F002207E00E
:10AC5000C5EA030540E80154002CE9D14FF0010298
:10AC60008DF803200193019B9DF803200B602AB10E
:10AC70000B880068184402B030BC704702F0FF0334
:10AC8000184602B030BC70470A884B889A4201D0FF
:10AC90000020704750E8012FC2EA024240E8012339
:10ACA000002BF7D10120704730B482B050E8023F4A
:10ACB0001FFAA3F5C488A54202BFBFF32F8F00225D
:10ACC0000DE0C48925448489A54228BF2D1BC3EA11
:10ACD000054540E80254002CE8D14FF001028DF800
:10ACE00003200193019B9DF803200B602AB14B8840
:10ACF0000068184402B030BC704702F0FF031846E9
:10AD000002B030BC704700BF0A884B889A4201D01D
:10AD10000020704750E8022FC2EA224240E8022396
:10AD2000002BF7D1012070474A09012301F01F01D0
:10AD300000EB820003FA01F100F080B84B0910B576
:10AD400001F01F04012100EB8300A14000F068F82E
:10AD5000E04000F0010010BD01F01F02012349098D
:10AD6000934000EB8100D94300F076B84B0901F025
:10AD70001F0150F82300C84000F00100704700BFD9
:10AD80002DE9F04F01F1FF3B83B04FEA5B130F4613
:10AD90000546019300264FF0010A55F8264005EBC1
:10ADA0008608E44394FAA4F4FCB1B4FA84F404EB06
:10ADB00046144FEA4619A74217D904F01F03600949
:10ADC0000AFA03F105EB80009B4600F029F820FA0F
:10ADD0000BF0C30711D5D8F80030DB4393FAA3F387
:10ADE000B3FA83F44C44002BE5D1019AB24206F148
:10ADF000010301D01E46D0E73C46204603B0BDE823
:10AE0000F08F00BF10B4034653E8000F0A4643E832
:10AE1000002494F0000FF7D15DF8044B704700BF99
:10AE200010B4034653E8000F40EA010243E800244F
:10AE300094F0000FF6D15DF8044B704710B4034650
:10AE400053E8002F42EA010043E8000494F0000FA9
:10AE5000F6D15DF8044B704710B4034653E8002F59
:10AE600002EA010043E8000494F0000FF6D15DF817
:10AE7000044B704710B4034653E8000F00EB010287
:10AE800043E8002494F0000FF6D15DF8044B7047BE
:10AE900010B4034653E8002F02EB010043E800041E
:10AEA00094F0000FF6D15DF8044B704710B40346E0
:10AEB00053E8002FA2EB010043E8000494F0000FD8
:10AEC000F6D15DF8044B704710B40346012253E8F5
:10AED000000F40EA020143E8001494F0000FF6D19D
:10AEE0005DF8044B704700BF10B40346012253E8DD
:10AEF000001F41EA020043E8000494F0000FF6D17D
:10AF00005DF8044B704700BF10B40346002253E8BD
:10AF1000000F00EA020143E8001494F0000FF6D19C
:10AF20005DF8044B704700BFB8B130B4D0E90112EE
:10AF3000521A0468D2B2531E2160DBB242B10168DA
:10AF40000A685C1E551C0D601370E3B2FF2BF6D12E
:10AF500003680020187130BC70470E20704700BF96
:10AF6000F0B583B0044600250DF107008DF80750B9
:10AF7000FEF736F9D4E900311A688A4210D9511E19
:10AF800019602168A3680F6812F8015C0A79268AA3
:10AF9000E068DB1BDBB29A4206FB050538BF0B718C
:10AFA0009DF80700FEF742F9284603B0F0BD00BF48
:10AFB00030B5054683B000230DF107000C468DF82F
:10AFC0000730FEF70DF92A681368591C1160E9680B
:10AFD0002A8A641AB4FBF2F41C709DF80700FEF78D
:10AFE00025F903B030BD00BF826842B110B50446F8
:10AFF00043690168006998470023A36010BD70474A
:10B000000EB400B582B0039921B104AB01AA01933B
:10B0100000F0ACF802B05DF804EB03B0704700BF7D
:10B020002DE9F04F164683B0B142DDE90C920F4690
:10B0300005469A46C0F095800B464FF00108B3FBD9
:10B04000F6F39E4208F10108F9D9D04538BFD04641
:10B0500012F00103019302D1B9F1000F5ED1AA6889
:10B06000012403E00AF1FF3A06FB04F4BAF1010FF0
:10B07000F8D8B7FBF4F39E42F6D9DFF8ECA007E06E
:10B08000B442B4FBF6F31AD3AA681C46B7FBF3F339
:10B090001AF803B0BBF10A0F04FB137728D02B6812
:10B0A000511CA96003F802B0D5E901329A42E7D3F6
:10B0B0002846FFF799FFB4FBF6F3B442E4D2019BB4
:10B0C0009BB1B9F1000F10D02024C84509F1FF3918
:10B0D0000BD2AB682A68591CA960D454D5E9013257
:10B0E0009A4214D2B9F1000FEFD103B0BDE8F08F4E
:10B0F000511C2B68A9604FF00D019954D5E901321C
:10B100009A42CCD32846FFF76FFFAA68C7E72846C4
:10B11000FFF76AFFB9F1000FD7D1E6E793071AD41A
:10B120002024AA68C84502F1010199D22B68A960C0
:10B130009C54D5E901329A4209F1FF3903D2B9F1A1
:10B14000000FEFD18CE72846FFF74EFFAA68B9F150
:10B15000000FE7D184E7BAF1000F0CBF30242024A0
:10B16000DFE74FF0010870E7B8C50300002900F0E1
:10B1700054822DE9F04FDFF8B8950C7885B006467B
:10B1800090460D464FF00D0A10E00A2CB36800F00F
:10B19000AD803268591CB160D454D6E901329A426C
:10B1A00080F0A0802C78002C00F087800135002CE6
:10B1B00000F08380252CE8D1294600270D4611F8A0
:10B1C000012B2D2A00F08880302A00F088802B2A5D
:10B1D0007AD02A2A00F09980A2F13003092B4FF08F
:10B1E00000040BD804EB840402EB440415F8012F8F
:10B1F000A2F13003092BA4F13004F3D92E2A00F078
:10B200009080002301E015F8012F02F0FB0168296E
:10B21000F9D0252A00F07781583AD1B2202947D8B1
:10B22000202A45D8DFE812F03501440044004400EC
:10B2300044004400440044004400440044004301EE
:10B24000130144004400440044001301440044003E
:10B250004400440044004400D20044004400A200E2
:10B260004400940044004400350101209842024605
:10B2700038BF1A460292002C40F05081B80740F1C6
:10B280006E81002B40F04E821C46BBF1000FC0F2D5
:10B290000A827A0700F11A8207F00302022A00F0FC
:10B2A000EA81CDE9004759460A223046FFF7B8FE49
:10B2B00001352C78002C7FF479AF337B002B40F0E4
:10B2C0001C8105B0BDE8F08F0D4611F8012B2D2A29
:10B2D00047F004077FF478AF47F001076EE747F0C7
:10B2E00002076BE73046FFF77FFE5BE73268591CC9
:10B2F000B16002F803A0D6E901239342FFF449AFFD
:10B300003046FFF771FEB36843E7D8F800301A1DE6
:10B31000C8F800206A781C682E2A05F101057FF420
:10B3200070AF6A78A2F13003092B05F101054FF0E7
:10B3300000033FF66AAF03EB830302EB430315F808
:10B34000012FA2F130010929A3F13003F3D95CE701
:10B35000D8F80020111DC8F8001011683046CDE95A
:10B3600000470A22FFF75CFE0135A2E7D8F800305B
:10B370001A1DC8F8002017F00107D3F800B040F0FC
:10B38000F080BBF1000F03D0584610F0F9FD0746DE
:10B39000BC4240F24381002C00F04081202205E0B5
:10B3A000BC4200F03B81002C00F03881B16833686A
:10B3B000481CB0605A54D6E90130984204F1FF3479
:10B3C000EED33046FFF710FE2022E9E7D8F8002040
:10B3D000131DC8F80030B36831681768581C302254
:10B3E000B060CA54D6E90123934280F0EF803268FE
:10B3F000581C7821B060D154D6E901329A4280F0CD
:10B40000E0800F2F03D93B461B090F2BFCD84FF0D0
:10B41000805406E00F2C4FEA14137FF649AFB26850
:10B420001C46B7FBF4F319F803B0BBF10A0F04FB99
:10B43000137754D03368511CB16003F802B0D6E9D9
:10B4400001329A42E6D33046FFF7CEFDE2E7D8F864
:10B450000020111DC8F80010D2F800B08BEAEB7282
:10B46000A2EBEB72092A7FF700AFDFF8C8C2012018
:10B4700011466329ACFB02E200F101004FEAD2025F
:10B48000F6DC9842024638BF1A460292002C45D19B
:10B49000F4E6D8F80020111DC8F8001011683046F5
:10B4A000CDE900471022FFF7BBFD013501E7D8F8D1
:10B4B00000301A1DC8F800201C78B3680A2C00F070
:10B4C00011813268591CB160D454D6E901329A42D4
:10B4D000FFF4EEAE3046FFF787FD0135E9E633684D
:10B4E000511CB16003F802A0D6E901329A42A1D3FF
:10B4F0003046FFF779FDB2689CE7304605B0BDE8FD
:10B50000F04FFFF771BDB3683168581CB060CA5482
:10B51000D6E901329A42DDD20135CAE6BBF1000F0D
:10B5200059DB7A0757D4B80702D5002B3FF4ADAEEC
:10B53000F9073FF5AAAE94B120220299A142BFF4C7
:10B54000A4AEB168481CB06030684254D6E901012D
:10B55000814204F1FF3480F0D480002CEDD100242E
:10B5600093E69BF80030002B00F0E080B0685F4667
:10B57000CBF101020A2B02EB070B3CD0411CB1605E
:10B5800031680B54D6E90130984226D217F8013FB2
:10B59000002BEFD15C457FF68BAE202702E05C45A7
:10B5A0003FF486AEB2683368511CB1609F54D6E94F
:10B5B00001329A4204F1FF34F1D33046FFF714FD13
:10B5C000EDE73046FFF710FDB2681AE73046FFF7A7
:10B5D0000BFDB3680BE7013CA5E730460292FFF78D
:10B5E00003FD17F8013F002BD4D0029AB0680A2B54
:10B5F00002EB070BC2D1411CB160316801F800A019
:10B60000D6E901108842B9D33046CDE90232FFF7BE
:10B61000EBFCDDE90232B068B0E770479BF8004010
:10B62000002C3FF445AE0A2CB0680ED03368421CA3
:10B63000B2601C54D6E90130984214D21BF8014F75
:10B64000002C3FF435AE0A2CF0D13368421CB260B6
:10B6500003F800A0D6E901309842E7D33046FFF75F
:10B66000C3FCB068E2E73046FFF7BEFC1BF8014FB1
:10B67000002CD8D11CE6002B7FF413AE8CB1302205
:10B680000299A142BFF40DAEB168481CB0603068A9
:10B690004254D6E90101814204F1FF343BD2002C2F
:10B6A000EED10024FDE5B1684A1CB26032682D205D
:10B6B0005054D6E901219142CBF1000BFFF4ECADDF
:10B6C00030460393FFF790FC039BE5E5B1684A1C05
:10B6D000B26032682B205054D6E901219142FFF428
:10B6E000DBADEDE73268591CB16002F803A0D6E982
:10B6F00001239342FFF4E5AE3046FFF775FCB368D3
:10B70000DFE630460393FFF76FFC039B2022002CFB
:10B710007FF413AF23E730460393FFF765FC039BE9
:10B720003022BCE7F9073FF5B0AD18E79B4631E79B
:10B73000B8C50300CDCCCCCC10B582B040B10B461F
:10B74000B9B103601B68114602B0BDE8104018474C
:10B750000A480B4C0B4B0C4A0C49001BC0080E242A
:10B76000000440F00100009401F0A0FA0E2002B0A5
:10B7700010BD0248024C034B054AEDE7F8190400DE
:10B78000881904007CC70300C8C50300D0C50300A6
:10B79000FCC503002DE9F04182B0002858D0002AF2
:10B7A00068D0D0F800E0BEF1000F68D01D4673B33A
:10B7B0004768D7F80480B3FBF8F708FB1737002F6A
:10B7C00037D18F073AD112F0030F3CD1C768B94285
:10B7D00011D23348334C344B344A3549001BC0082E
:10B7E0001024000440F00100009401F05FFA2046AC
:10B7F00002B0BDE8F08104694E1E3544A542E8D888
:10B80000DEF80C40A44602B0BDE8F0416047244891
:10B81000244C254B274A2649001BC0080924000454
:10B8200040F00100009401F041FA204602B0BDE86A
:10B83000F0811B481B4C1C4B1F4AECE71848194C65
:10B84000194B1E4AC9E71648164C174B1C4AC4E749
:10B850001348144C144B1B4A1549001BC0080E24F6
:10B86000000440F00100009401F020FA204602B0EC
:10B87000BDE8F0810A480B4C0B4B134AECE7094C2E
:10B880000748094B114A0A49001BC0080824000454
:10B8900040F00100009401F009FA2046A8E700BF3B
:10B8A000F81904008819040090C70300CCC60300EF
:10B8B000D0C5030018C6030064C6030090C6030089
:10B8C000A8C60300C8C503005CC6030004C6030085
:10B8D000F0B583B0002843D0D0F800C0BCF1000F11
:10B8E0004ED03AB34768D7F800E00EF1FF370F4269
:10B8F00031D1C768B94210D229482A4C2A4B2B4A69
:10B900002B49001BC0081024000440F001000094E3
:10B9100001F0CCF9204603B0F0BD04694D1E0EFBCA
:10B920000255A542E8D8DCF81040A44603B0BDE8B3
:10B93000F04060471B4C1A481B4B1E4A1C49001B19
:10B94000C0080924000440F00100009401F0AEF9A1
:10B95000204603B0F0BD1248124C134B164ACFE7F5
:10B96000104C0F48104B154A1149001BC0080E24FB
:10B97000000440F00100009401F098F92046CAE765
:10B98000084C0748084B0E4A0949001BC008082408
:10B99000000440F00100009401F088F92046BAE765
:10B9A000F819040088190400A4C703001CC7030089
:10B9B000D0C5030018C60300F4C60300C8C50300C1
:10B9C00004C6030029DF704728DF70470846704728
:10B9D00000207047024B187A003818BF01207047CA
:10B9E000A4300020034B187A0122B0FA80F05A7478
:10B9F00040097047A430002008B510461A4610F0E0
:10BA00009FF8002008BD00BF08B51422002104489B
:10BA100010F098F90348FFF7E7F8002008BD00BFD1
:10BA2000A43000209430002038B50A4C0A4B436003
:10BA30002046FFF749FA08B1002038BD02F000F9AE
:10BA4000064905461C238C2205482574FFF7B4F8E7
:10BA5000002038BDA4300020B8C703000830002003
:10BA60009430002030B5394D2B7A87B0002B39D077
:10BA7000374B1C6802232B722379002B3DD0012BFE
:10BA800024D022689368C3B10023CDE90333029325
:10BA90000093A3680593032301932379002B48D0D7
:10BAA000012B07D1E368616904911B030221029312
:10BAB0008DF800109368684698470023254926486A
:10BAC0002B726B60FFF720F907B030BDD4E9030398
:10BAD0001844FFF779FF20B31128D2D101232B722C
:10BAE00007B030BD1B491C48FFF7DEF8184B044671
:10BAF00018600028BED16860E6E7D4E90520121A74
:10BB0000B2F5805F28BF4FF48052D4E90313920846
:10BB1000012A38BF012201441844FFF753FF0028CF
:10BB2000DAD12B7C002BCFD10146022000F016F891
:10BB3000CAE72069E1680123CDE902018DF80030F0
:10BB400063690493936868469847B6E7A430002079
:10BB5000BC300020B830002094300020831E012B20
:10BB60003FD810B5334C237A86B0002B37D0022B48
:10BB700031D103283AD0304B00221B68E2601A7999
:10BB8000002A40D0012A26D1D3E9042101328A4279
:10BB90001A6120D10020207219688A68BAB1002287
:10BBA000CDE90322029200929A68019005921A79D7
:10BBB000002A35D0012A07D1DA685B6904931303A0
:10BBC000022202938DF800208B68684698471B4933
:10BBD0001B48FFF799F8637C23B9FFF743FF06B0D2
:10BBE00010BD704702F01CF806B010BDE3680133C9
:10BBF000082B01D8E360EEE70F4B00221B68E260E0
:10BC000022720D20C8E7D3E90512881AB0F5805FCB
:10BC100094BF121802F5805291429A61DBD1B9E7C4
:10BC2000012218698DF80020DA685B690493CDE978
:10BC30000202C9E7A4300020BC300020B830002048
:10BC4000943000202DE9F04784B007460E461A488C
:10BC500003A915469A46FEF7E9FF40B304460021C2
:10BC60001C228846DFF8549010F06CF80C9B1248A8
:10BC70002760C4E90356A360C4F814A003A984F89C
:10BC80000480FFF701F809F10400FFF71DF918B16E
:10BC9000404604B0BDE8F08799F81130002BF8D188
:10BCA0000190FFF7DFFE019804B0BDE8F0870420A3
:10BCB00004B0BDE8F08700BF94300020A43000201D
:10BCC0002DE9F04385B081460D46194803A9164673
:10BCD0001F46FEF7ABFF30B304461C22002110F0D4
:10BCE00031F8DFF850801248C4F8009001232D0B82
:10BCF000C4E90275666103A92371FEF7C5FF08F167
:10BD00000400FFF7E1F818B1002005B0BDE8F083AA
:10BD100098F81130002BF8D10190FFF7A3FE01989D
:10BD200005B0BDE8F083042005B0BDE8F08300BF96
:10BD300094300020A430002000F0FD03012B00D03F
:10BD4000704730B53B4DA0F10100B0FA80F02B7A7E
:10BD50004009002287B028746A74002B4AD0364B01
:10BD60001C6802232B722379002B4ED0012B07D1A4
:10BD7000D4E903031844FFF727FE48B311281BD06A
:10BD8000226893687BB10023CDE9033302930093CB
:10BD9000A36805930323019323790BB3012B0ED0E2
:10BDA0009368684698470023244925482B726B60A6
:10BDB000FEF7AAFF07B030BD01232B72FAE7E36854
:10BDC000616904911B03022102938DF80010E7E7DB
:10BDD0002B7C002BEED101460220FFF7BFFEE9E7E6
:10BDE0002069E16801238DF8003063690493CDE98F
:10BDF0000201D5E711491248FEF756FF0E4B0446E3
:10BE000018600028ADD16860D4E7D4E90520121A83
:10BE1000B2F5805F28BF4FF48052D4E90313920833
:10BE2000012A38BF012201441844FFF7CBFD002846
:10BE3000A4D1CDE7A4300020BC300020B8300020D1
:10BE400094300020FFF770B82DE9F041058A0331E6
:10BE5000043D4E198046B6FBF5F6FFF781F8A0B316
:10BE6000F6B24FF48073013E0446C580C0F80080EE
:10BE700083802BD00346002508E06279AE4202F1B0
:10BE8000010262713860C0F800801FD040461F4632
:10BE9000FFF766F8013503460028EED16779791E71
:10BEA00017D02246013399421268FBD1D2F80080A4
:10BEB0005FB12668002501E0344636682146013529
:10BEC0004046FFF775F8AF42F6D800242046BDE89B
:10BED000F08120682146FFF76BF8F6E70430012176
:10BEE000FEF7D6BF2DE9F041012104460430FEF7EC
:10BEF000DDFF10F0FF0301D0BDE8F0816779791E06
:10BF000016D02246013399421268FBD1D2F8008044
:10BF1000002FF1D02668002501E03446366821461E
:10BF200001354046FFF744F8AF42F6D8BDE8F0814E
:10BF300020682146BDE8F041FFF73AB82DE9F84303
:10BF40000546C6884079144606FB00F2043A04EB25
:10BF5000030C1F1D624538BFD41ABE428846B7FB8A
:10BF6000F6F106FB117002D801392D68FCD1371AA1
:10BF7000A74228BF27469CB14FF000090430E41BBC
:10BF800028443A4608EB09010FF0DAFDA642B9440D
:10BF90002D6837464FF0000028BF2746002CEDD112
:10BFA000BDE8F8832DE9F8430546C6884079144674
:10BFB00006FB00F2043A04EB030C1F1D624538BF78
:10BFC000D41ABE428846B7FBF6F106FB117002D8C0
:10BFD00001392D68FCD1371AA74228BF27469CB1EA
:10BFE0004FF0000904302918E41B3A4608EB090019
:10BFF0000FF0A6FDA642B9442D6837464FF0000069
:10C0000028BF2746002CEDD1BDE8F88341DF7047FB
:10C01000064A074B10B5002414701C60BFF35F8FF5
:10C020000449054800F0C4F8204610BDC83000207F
:10C03000CC300020F0C70300C030002000B583B032
:10C0400000230DF107008DF80730FDF7C9F8F1EE78
:10C05000103A23F09F03E1EE103ABFF35F8F0B4BD2
:10C060004022C3F884219DF80700FDF7DFF801F0B6
:10C07000E7FD28B920BF40BF20BF03B05DF804FB37
:10C08000FFF7C4FF03B05DF804FB00BF00E100E070
:10C090000368826818685B68934234BF01330023E9
:10C0A000C01AB0FA80F04009704700BFF0B50446EE
:10C0B00083B000250DF107000E468DF80750FDF7FF
:10C0C0008FF82368A26818685968914238BF4D1CE0
:10C0D000A84212D0586859688A420BD800225A6088
:10C0E000E268531E072B19D8DFE803F04540183BE0
:10C0F0001818183301315960F2E7217C002941D129
:10C1000058685D68AA423AD859602268A1681368E5
:10C110008B4234BF013300231360E1E7636831468B
:10C1200000FB02300FF00CFD2268136851688B424F
:10C1300082BFA06801300918CB1A91689DF80700EA
:10C14000994238BF9360FDF771F80024204603B090
:10C15000F0BD6368D6E9006703EBC000C0E9006783
:10C16000E2E76368326843F82020DDE763683288DD
:10C1700023F81020D8E7636832781A54D4E70135E1
:10C180005D60C2E79DF80700FDF750F804242046E3
:10C1900003B0F0BD826800239360826813618268F7
:10C1A00053618268D360826853608268136070470D
:10C1B00001600B6843604A68934204BF00234360F8
:10C1C000704700BF436843B1026891680B44436005
:10C1D0005268934204BF00234360704770B54468BF
:10C1E000064620680D4618B908E02468206828B182
:10C1F000B368294698470028F7D120682860256051
:10C2000070BD00BF4368186808B102681A607047C3
:10C2100043681868704700BF4368186818B908E099
:10C220000346006828B18142FAD10A681A600120E9
:10C2300070477047114910B4A1F5947205E052F8A7
:10C240003330984238BF21460CD28C1AE30F03EBEF
:10C25000E4035B10914202EBC304F0D808485DF898
:10C26000044B704702D904F10802EEE76068044B02
:10C270005DF8044B002808BF1846704730CD030016
:10C28000F4CB0300F0B595B000241D460E460846D9
:10C290001746FFF723FE304623460822099505A9D5
:10C2A0001A9D08970D950A948DF82C400C94FFF771
:10C2B00079FE9DF814308DF81140DDE9061003F089
:10C2C0000302012ACDE9020128D0022A04D0304617
:10C2D000FFF708FE15B0F0BDBDF81650C3F3C2035A
:10C2E0008DF81030C5F389150827082D2C4628BF76
:10C2F00008243B4622460EA93046FFF753FE2D1B6D
:10C30000214608AB02AA0EA8274401F08DF8002DA3
:10C31000EBD13046FFF7E6FD15B0F0BDBDF8147067
:10C32000059DC7F38312C3F3C2040EA930469200E1
:10C3300008238DF81040C7F38317FFF733FEC5F3CA
:10C34000952508AB3A4628460EA9009302AB00F0AB
:10C35000F3FF3046FFF7C6FD15B0F0BD014B0122DB
:10C360001A70704714310020704700BF00B583B0C9
:10C37000044B0093044A4023FFF784FF03B05DF8A9
:10C3800004FB00BF8DC30200D430002038B50E4836
:10C390000E4D03780E4CEB5C00252570D2B253B1E4
:10C3A0000430FCF7A5FA58B90A4B1B7813B123786F
:10C3B000002BFCD038BD0C30FBF7B2FF0028F3D0C7
:10C3C000FCF71AFCF0E700BFEC2B0020B86A002055
:10C3D00014310020D03000202DE9704319481A4A4A
:10C3E0000378D35C88B02BB30430FCF7C9F9174D40
:10C3F0000FCD6C460FC495E80F004FF0EB7684E844
:10C400000F004FF006084FF0FF394FF0FF344FF0A8
:10C41000FF350C48069600226946CDE90089CDE932
:10C420000245FBF72DF948B9094B00221A7008B0F4
:10C43000BDE870830C30FBF7EDFED8E7FCF7DCFBC2
:10C44000F2E700BFEC2B0020B86A002030CD0300DB
:10C45000D0300020F0B5154D0FCD89B06C460FC41B
:10C4600095E80F004FF0EB7C84E80F0006264FF0B4
:10C47000FF374FF0FF344FF0FF350D4A0D48CDF830
:10C4800018C06946CDE90067CDE90245FBF7F8F829
:10C4900020B9094B01221A7009B0F0BDFCF7ACFBC2
:10C4A000054B01221A7009B0F0BD00BF30CD03006A
:10C4B0005DC30200EC2B0020D030002008B5FFF750
:10C4C000C9FF0448042100F0B5FE034B01225A7154
:10C4D00008BD00BF801A0400002C0020064B07484E
:10C4E00010B500221A70FFF7ADFC044610B90448DD
:10C4F000FFF750FE204610BDE83100206C19040003
:10C5000088CD030099B10E4B0E495B1ADB0815D09C
:10C5100030B400220C4D02E0013293420BD035F8CA
:10C5200022408442F8D151F8320030BC70470549AE
:10C5300051F830007047002030BC704718467047F3
:10C54000801A040088190400CC2C0020094B013902
:10C5500003EBC00003290BD8DFE801F00402080652
:10C560000420704702207047407970470079704777
:10C570000020704788190400704700BF2DE9F04380
:10C580008C4CD4E901239A4285B060D00023C4F8D2
:10C590001834BFF34F8FA568EAB2D31C04EB8301B4
:10C5A00014F82330580718D566680B7803F0030396
:10C5B000012B42D0022B03D14B88023505EB93159A
:10C5C000EAB2D4F81804D31C04EB830128B9AE42B4
:10C5D00039D914F823305B07E7D404EB82026B1CD3
:10C5E000D2680192DBB204EB830302F00302DB6842
:10C5F0000293022A05F102062DD0012A00F08D8057
:10C60000D4F810543DB12B6828469B689847EB68D6
:10C610001D68002DF7D16848684B6949C01AC008E9
:10C62000000440F0020000F0D1F8D4E90130C01A53
:10C6300018BF012005B0BDE8F0830B880235C3F3B5
:10C6400083131D44BCE7A66005B0BDE8F08300205D
:10C6500005B0BDE8F083BDF806305A48C3F3891829
:10C660004546502D28BF502565F38F1305F108016D
:10C67000ADF80630FFF7E8FB07460028C0D0FFF70B
:10C680002DFC002301A908223846FFF757FCF3438D
:10C69000DBB20133B5EB830F4FEA8309F1B277D9EF
:10C6A000A5EB0905033104EB810108234A4638460E
:10C6B000EDB2FFF743FC44492A4609F10803384626
:10C6C000FFF73CFC08F1030806EB9806D4F8183491
:10C6D000002B6AD1D4F8105465B1EB685A7928461A
:10C6E0003946002A5DD02B681B689847EB681D68A7
:10C6F000002DF2D13846FFF7F5FB00230DF10300C2
:10C700008DF80330FCF76CFDD4F8183403B9A6603B
:10C710009DF80300FCF78AFD87E7BDF8043029483F
:10C72000C3F38312062A28BF0622911C62F38913E1
:10C730008900ADF80430FFF787FB074600283FF477
:10C740005FAFFFF7CBFB0023082201A93846FFF7B4
:10C75000F5FBBDF8043013F4707FB7D06FF001081B
:10C76000A8EB05080825F1B203312B46042204EB9F
:10C7700081013846FFF7E2FBBDF80420013608EBE3
:10C780000603C2F383129A4205F10405EBD89DE734
:10C7900003312A4604EB810108233846FFF7CEFB1C
:10C7A00090E71D68002D98D1A4E73846FFF79AFB63
:10C7B0003BE700BFE8310020B819040088190400E5
:10C7C00070CD03006C190400F43100202DE9F04F06
:10C7D0005F4C87B0002306460DF10B008DF80B303F
:10C7E0000F46FCF7FDFCD4E9015303F580735B1B96
:10C7F000012B7DD804F21C4804F5836A04F2144925
:10C800001AE0BDF80E30C3F389130333090C0BEBA8
:10C81000930B48460191FEF777FB0199002839D028
:10C820004046C4F808B0FEF733FBD4E9013202F504
:10C830008072D21A012A5CD801214046FEF728FBFB
:10C840005046FEF751FB4846FEF74EFBA368DAB2AE
:10C85000D11C04EB810014F8211001F0040C4907ED
:10C8600028D404EB8202591CD2680392C9B204EBAB
:10C87000810102F00302012AC96803F1020B30D0E2
:10C88000022ABED0002148460191FEF73DFB0199E6
:10C890000028C5D14046C6E743880EEB9313DAB2B1
:10C8A000D11C04EB810014F8211001F0040CBCF140
:10C8B000000FD6D0017801F0030101290BD0022925
:10C8C00003F1020E02F10301E6D004EB8100BCF19A
:10C8D000000FEFD1C5E702880233C2F3831213447D
:10C8E000DDE7BDF80C30C3F38313090C9B4490E7DC
:10C8F0002B46DAB20332023305219DF80B0044F8CF
:10C9000022106360FCF792FC00211248FEF77AFACD
:10C9100080F31000F1006B1C01F03801DBB2EDB2C6
:10C9200004EB830341F001010004033540EA16469D
:10C9300041EA8727DE6044F8257023781BB1FFF7B2
:10C940001DFE0028FBD1FFF717FE07B0BDE8F08FF2
:10C95000E8310020043600202DE9F04F644C87B008
:10C96000002306460DF10B008DF80B300F46904664
:10C97000FCF736FCD4E9015303F580735B1B022BF3
:10C980007FD804F21C4904F5836B04F2144A1BE0BF
:10C99000BDF80E20C2F389120332090C03EB920397
:10C9A0005046CDE90031FEF7AFFA019900283AD0A0
:10C9B000009BA3604846FEF76BFAD4E9013202F50A
:10C9C0008072D21A022A5DD801214846FEF760FA29
:10C9D0005846FEF789FA5046FEF786FAA368DAB29F
:10C9E000D11C04EB810014F8211001F0040C49075C
:10C9F00029D404EB8202591CD2680392C9B204EB19
:10CA0000810102F00302012AC96803F1020331D057
:10CA1000022ABDD000215046CDE90031FEF774FA5C
:10CA200001990028C4D14846C5E743880EEB93130B
:10CA3000DAB2D11C04EB810014F8211001F0040CCF
:10CA4000BCF1000FD5D0017801F0030101290BD012
:10CA5000022903F1020E02F10301E6D004EB81008A
:10CA6000BCF1000FEFD1C4E702880233C2F3831296
:10CA70001344DDE7BDF80C20C2F38312090C134404
:10CA80008EE72B46DAB20332033345219DF80B00C3
:10CA900044F822106360FCF7C9FBAB1CDBB204EB6B
:10CAA000830300211348C3F80C80FEF7ABF980F331
:10CAB0001000F1006B1C01F03801DBB2EDB204EBA9
:10CAC000830341F041010004033540EA164641EA80
:10CAD0008727DE6044F8257023781BB1FFF74EFDF1
